:020000040800F2
:10000000005000200D1C0008D91A0008DD1A000855
:10001000E11A0008E51A0008E91A000800000000CB
:10002000000000000000000000000000ED1A0008C1
:10003000F11A000800000000F51A0008F91A00087B
:10004000551C0008551C0008551C0008551C0008CC
:10005000551C0008551C0008551C0008551C0008BC
:10006000551C0008551C0008551C0008551C0008AC
:10007000551C0008551C0008551C0008551C00089C
:10008000551C0008551C0008551C0008551C00088C
:10009000551C0008551C0008551C0008551C00087C
:1000A000551C0008551C0008551C0008551C00086C
:1000B000551C0008551C0008551C0008551C00085C
:1000C000551C0008551C0008551C0008551C00084C
:1000D000551C0008551C0008551C0008551C00083C
:1000E000551C0008551C0008551C000800000000A5
:1000F0000000000000000000000000000000000000
:0C01000000000000000000005FF808F1A3
:10010C0010B5054C237833B9044B13B10448AFF345
:10011C0000800123237010BD0C00002000000000A3
:10012C00B41C0008084B10B51BB108490848AFF3C4
:10013C0000800848036803B910BD074B002BFBD0A7
:10014C00BDE81040184700BF000000001000002060
:10015C00B41C00080C0000200000000082B0084B0A
:10016C001B68084AA2FB03235B0A00FB03F0019007
:10017C0000BF019B5A1E0192002BF9D102B07047AF
:10018C0008000020D34D6210002800F0EC8170B5FF
:10019C0082B00446036813F0010F6BD0A84B5B6868
:1001AC0003F00C03042B0AD0A54B5B6803F00C0383
:1001BC00082B0DD1A24B5B6813F4803F08D0A04BE9
:1001CC001B6813F4003F55D06368002B52D1CCE16F
:1001DC006368B3F5803F05D1994A136843F48033C3
:1001EC00136026E063B903F1804303F504331A6806
:1001FC0022F480321A601A6822F480221A6018E005
:10020C00B3F5A02F0CD103F18043A3F53C331A684E
:10021C0042F480221A601A6842F480321A6008E0B4
:10022C00874B1A6822F480321A601A6822F48022F2
:10023C001A6063687BB101F065F8054605E001F0D2
:10024C0061F8401B642800F292817D4B1B6813F40B
:10025C00003FF4D00EE001F055F8054605E001F042
:10026C0051F8401B642800F28481754B1B6813F411
:10027C00003FF4D1236813F0020F50D0704B5B6831
:10028C0013F00C0F0AD06E4B5B6803F00C03082BB9
:10029C0016D16B4B5B6813F4803F11D1684B1B6814
:1002AC0013F0020F03D02369012B40F06481644AE0
:1002BC00136823F0F803616943EAC10313602EE06D
:1002CC002369D3B101225F4B1A6001F01BF805467C
:1002DC0005E001F017F8401B022800F24E81584B44
:1002EC001B6813F0020FF4D0554A136823F0F8037F
:1002FC00616943EAC103136011E00022514B1A609B
:10030C0001F000F8054605E000F0FCFF401B022858
:10031C0000F235814A4B1B6813F0020FF4D12368AD
:10032C0013F0080F29D0A369ABB10122464B1A6018
:10033C0000F0E8FF054605E000F0E4FF401B022852
:10034C0000F21F813E4B5B6A13F0020FF4D00120C8
:10035C00FFF704FF11E000223B4B1A6000F0D2FFC4
:10036C00054605E000F0CEFF401B022800F20B8191
:10037C00334B5B6A13F0020FF4D1236813F0040FB4
:10038C0000F08B802E4BDB6913F0805F0BD12C4B74
:10039C00DA6942F08052DA61DB6903F08053019331
:1003AC00019B012500E00025284B1B6813F4807F7E
:1003BC0013D1264A136843F48073136000F0A2FF34
:1003CC00064605E000F09EFF801B642800F2DD80ED
:1003DC001E4B1B6813F4807FF4D0E368012B05D10E
:1003EC00174A136A43F00103136222E063B903F165
:1003FC00804303F504331A6A22F001021A621A6A66
:10040C0022F004021A6214E0052B09D10C4B1A6A73
:10041C0042F004021A621A6A42F001021A6208E0FF
:10042C00074B1A6A22F001021A621A6A22F00402BD
:10043C001A62E368D3B100F065FF064610E000BF16
:10044C000010024000004242800442420070004012
:10045C0000F058FF801B41F28833984200F29780DD
:10046C00544B1B6A13F0020FF2D010E000F04AFF5D
:10047C00064607E000F046FF801B41F288339842A5
:10048C0000F287804B4B1B6A13F0020FF2D125B19F
:10049C00484AD36923F08053D361E369002B7AD0A7
:1004AC00444A526802F00C02082A4CD0022B37D175
:1004BC000022414B1A6000F025FF054604E000F0D5
:1004CC0021FF401B022868D83A4B1B6813F0007FB1
:1004DC00F5D1236AB3F5803F06D136494B6823F436
:1004EC000032A36813434B603248436823F4741101
:1004FC00236A626A13430B43436001222E4B1A603A
:10050C0000F000FF044604E000F0FCFE001B022893
:10051C0045D8284B1B6813F0007FF5D0002047E02E
:10052C000022254B1A6000F0EDFE044604E000F0BA
:10053C00E9FE001B022834D81E4B1B6813F0007F09
:10054C00F5D1002034E0012B2DD01A4B5B6803F45D
:10055C008031226A914228D103F47013626A93426B
:10056C0025D0012024E001207047012020E0032049
:10057C001EE003201CE001201AE0032018E00320F9
:10058C0016E0032014E0032012E0032010E0032007
:10059C000EE003200CE000200AE0032008E003201A
:1005AC0006E0032004E0012002E0012000E000202E
:1005BC0002B070BD001002406000424230B486B000
:1005CC00164D02AC28686968AA68EB680FC42B8AC0
:1005DC00ADF80430124B5B6803F00C02082A19D1F9
:1005EC00C3F3834206A90A4412F8100C13F4803F9B
:1005FC000CD00B4B5B68C3F340430B4413F8142C27
:10060C00084B03FB00F0B0FBF2F004E0064B03FBDD
:10061C0000F000E0034806B030BC7047CC1C00086A
:10062C000010024000127A0000093D00002800F082
:10063C009D8070B50446544B1B6803F007038B4236
:10064C000BD2514A136823F007030B431360136852
:10065C0003F00703994240F08B80236813F0020FDC
:10066C0017D013F0040F04D0484A536843F4E063E6
:10067C005360236813F0080F04D0444A536843F4C2
:10068C00605353604148436823F0F002A36813435E
:10069C0043600D46236813F0010F2ED06268012AC7
:1006AC0005D13A4B1B6813F4003F0DD162E0022ACE
:1006BC0005D1364B1B6813F0007F05D15CE0334B42
:1006CC001B6813F0020F59D030494B6823F0030319
:1006DC0013434B6000F016FE064606E000F012FED7
:1006EC00801B41F2883398424AD8284B5B6803F050
:1006FC000C036268B3EB820FF0D1234B1B6803F041
:10070C0007039D420AD2204A136823F007032B43A8
:10071C001360136803F007039D4233D1236813F071
:10072C00040F06D019494B6823F4E062E3681343C5
:10073C004B60236813F0080F07D0144A536823F456
:10074C006053216943EAC1035360FFF737FF0F4B36
:10075C005B68C3F303130E4AD35CD8400D4B18608F
:10076C000D4B186800F08AFD002070BD0120704709
:10077C00012070BD012070BD012070BD012070BD35
:10078C00032070BD012070BD00200240001002400B
:10079C00F41C00080800002000000020014B186821
:1007AC00704700BF0800002008B5FFF7F7FF044BA7
:1007BC005B68C3F3C223034AD35CD84008BD00BFB7
:1007CC0000100240041D000870B4036A23F00103FA
:1007DC000362036A4668826922F073020C6842EA7B
:1007EC00040523F002028B6813430C4CA04205D184
:1007FC0023F00803CA68134323F00403074CA042F8
:10080C0005D126F440764A6932438E691643466018
:10081C0085614A684263036270BC7047002C0140DA
:10082C0030B4036A23F480730362036A4568C269B7
:10083C0022F073020C68224323F400738C6843EAA1
:10084C0004230E4CA04206D123F40063CC6843EA87
:10085C00042323F48063094CA04207D125F44055AE
:10086C004C6945EA04158C6945EA04154560C2617A
:10087C004A68C263036230BC704700BF002C014061
:10088C0030B4036A23F480530362036A4468C26978
:10089C0022F4E6420D6842EA052223F400538D68E7
:1008AC0043EA0533074DA84204D124F480444D6932
:1008BC0044EA85144460C2614A680264036230BC35
:1008CC00704700BF002C014010B4036A046A24F086
:1008DC0001040462846924F0F00444EA021223F057
:1008EC000A0319438261016210BC704710B4036A99
:1008FC0023F0100303628469036A24F4704444EA0D
:10090C00023223F0A00343EA01118261016210BCA0
:10091C00704700BF836823F07003194341F007014F
:10092C0081607047704700BF03681A4A90420AD032
:10093C00B0F1804F07D0A2F59432904203D002F56B
:10094C008062904203D123F070034A681343114A2A
:10095C0090420AD0B0F1804F07D0A2F59432904269
:10096C0003D002F58062904203D123F44073CA682D
:10097C00134323F080034A69134303608B68C362FB
:10098C000B688362034B984201D10B69036301230B
:10099C0043617047002C0140B8B110B5044690F883
:1009AC003D3013F0FF0F04D1002380F83C3001F0F0
:1009BC00F1F8022384F83D30211D2068FFF7B4FFC5
:1009CC00012384F83D30002010BD0120704700BF8A
:1009DC00B8B110B5044690F83D3013F0FF0F04D1B8
:1009EC00002380F83C30FFF79DFF022384F83D3054
:1009FC00211D2068FFF798FF012384F83D3000206B
:100A0C0010BD0120704700BF30B4036A23F01003FF
:100A1C000362036A4468826922F4E6420D6842EA82
:100A2C00052223F020038D6843EA05130D4DA842DF
:100A3C0006D123F08003CD6843EA051323F040036D
:100A4C00084DA84207D124F440644D6944EA85045A
:100A5C008D6944EA8504446082614A68826303625A
:100A6C0030BC7047002C014038B590F83C30012B5D
:100A7C0066D00D460446012380F83C30022380F8F2
:100A8C003D300C2A55D8DFE802F0075454541A5460
:100A9C0054542E54545441000068FFF795FE2268BC
:100AAC00936943F0080393612268936923F004036C
:100ABC009361226891692B690B43936139E000685B
:100ACC00FFF7A2FF2268936943F4006393612268E5
:100ADC00936923F48063936122689369296943EADB
:100AEC000123936125E00068FFF79AFE2268D36921
:100AFC0043F00803D3612268D36923F00403D36164
:100B0C002268D1692B690B43D36112E00068FFF7AF
:100B1C00B7FE2268D36943F40063D3612268D369BA
:100B2C0023F48063D3612268D369296943EA0123E2
:100B3C00D361012384F83D30002084F83C0038BD9B
:100B4C00022038BD10B4846824F47F4442EA0323A5
:100B5C00194344EA0103836010BC704790F83C30A1
:100B6C00012B6AD010B50446012380F83C300223D7
:100B7C0080F83D300268936823F47F4323F07703B9
:100B8C0093600B68402B43D00AD8102B4AD002D864
:100B9C00002B47D04AE0202B44D0302B42D045E0EC
:100BAC00602B2BD002D8502B1ED03FE0702B03D0E3
:100BBC00B3F5005F0CD039E0CB684A6889680068EF
:100BCC00FFF7C0FF2268936843F0770393602DE032
:100BDC00CB684A6889680068FFF7B4FF226893689D
:100BEC0043F48043936021E0CA6849680068FFF7CA
:100BFC006BFE50212068FFF78DFE17E0CA6849682C
:100C0C000068FFF773FE60212068FFF783FE0DE09C
:100C1C00CA6849680068FFF757FE40212068FFF753
:100C2C0079FE03E019462068FFF774FE012384F86F
:100C3C003D30002084F83C0010BD0220704700BFFE
:100C4C0010B401F01F01012303FA01F4036A23EA33
:100C5C0004030362036A8A401A43026210BC7047A1
:100C6C0010B5044601220068FFF7EAFF2368094A21
:100C7C00934203D15A6C42F400425A64226893683E
:100C8C0003F00703062B03D0136843F00103136032
:100C9C00002010BD002C014090F83C30012B1BD0E3
:100CAC0070B4012680F83C60022380F83D30026865
:100CBC005468936824F070050C682C4323F080056D
:100CCC004B682B4354600268936080F83D600023AE
:100CDC0080F83C30184601E00220704770BC704729
:100CEC0070B582B00023019390F82430012B69D0A9
:100CFC000446012380F8243000F034FD054600281A
:100D0C005BD1A36A23F4885323F0020343F002035C
:100D1C00A3622E4B1E68022000F02CFAB6FBF0F0FA
:100D2C004000019002E0019B013B0193019B002BD1
:100D3C00F9D1204600F05AFC2268936843F008036E
:100D4C00936000F0DFFA06460FE000F0DBFA801B40
:100D5C000A280AD9A36A23F0120343F01003A362F2
:100D6C00002384F8243001202DE023689A6812F0C7
:100D7C00080FEAD19A6842F004029A6000F0C2FAB5
:100D8C0006460FE000F0BEFA801B0A280AD9A36AB7
:100D9C0023F0120343F01003A362002384F82430E1
:100DAC00012010E023689B6813F0040FEAD1A36ABA
:100DBC0023F0030343F00103A362002384F82430DF
:100DCC00284600E0022002B070BD00BF08000020E1
:100DDC00074AD36823F4E0631B041B0C000200F4E5
:100DEC00E060184340F0BF6040F40030D0607047C2
:100DFC0000ED00E030B4164BDB68C3F30223C3F103
:100E0C000704042C28BF04241D1D062D01D9DD1E4A
:100E1C0000E00025012303FA04F4013C2140A94021
:100E2C00AB40013B1A400A43002808DB1201D2B246
:100E3C0000F1604000F5614080F8002305E000F00F
:100E4C000F001201D2B2034B1A5430BC704700BFD2
:100E5C0000ED00E014ED00E00138B0F1807F0AD223
:100E6C00064B5860F021064A82F823100020986047
:100E7C0007221A6070470120704700BF10E000E0A5
:100E8C0000ED00E0F0B583B000263446D4E001223A
:100E9C00A24013409A4240F0CE804D68122D2DD0C6
:100EAC000BD8022D27D003D85DB3012D1ED035E011
:100EBC00032D30D0112D1BD030E0634FBD4220D01C
:100ECC0008D8A7F58017BD421BD007F58037BD4267
:100EDC0024D116E05D4FBD4213D007F58037BD42DB
:100EEC000FD0A7F58017BD4218D10AE0CE6815E0E7
:100EFC00CE68043612E0CE6808360FE0CE680C36A9
:100F0C000CE08D684DB1012D02D10261082605E07F
:100F1C004261082602E0002600E00426FF2B01D8DF
:100F2C00864601E000F1040EFF2B01D8A20002E07E
:100F3C00A4F108029200DEF800700F25954027EA14
:100F4C00050506FA02F22A43CEF800204A6812F090
:100F5C00805F70D03E4A956945F0010595619269B4
:100F6C0002F001020192019AA708BD1C394A52F8FD
:100F7C00255004F0030292004FF00F0E0EFA02FE01
:100F8C0025EA0E0E344DA8420DD005F58065A84219
:100F9C000BD005F58065A84209D005F58065A842FF
:100FAC0007D1032506E0002504E0012502E0022517
:100FBC0000E0042505FA02F24EEA02020237254D42
:100FCC0045F827204A6812F4803F05D005F5806566
:100FDC002A681A432A6004E0204D2A6822EA030298
:100FEC002A604A6812F4003F04D01C4D6A681A4308
:100FFC006A6004E0194D6A6822EA03026A604A6872
:10100C0012F4801F04D0154DAA681A43AA6004E09C
:10101C00124DAA6822EA0302AA604A6812F4001F61
:10102C0004D00E4DEA681343EB6004E00B4DEA6804
:10103C0022EA0303EB6001340B6833FA04F27FF409
:10104C0026AF03B0F0BD00BF00002110000031102E
:10105C000010024000000140000801400004014063
:10106C0070B582B00446036813F0010F5CD03E4BA0
:10107C00DB6913F0805F0BD13B4BDA6942F0805295
:10108C00DA61DB6903F080530193019B012600E0D8
:10109C000026364B1B6813F4807F12D1334A136839
:1010AC0043F48073136000F02DF9054604E000F062
:1010BC0029F9401B64284FD82C4B1B6813F4807FF4
:1010CC00F5D0294B1B6A13F4407321D0626802F4EB
:1010DC00407293421CD0244A136A23F44070244972
:1010EC0001250D6000250D60106213F0010F0FD06B
:1010FC0000F008F9054606E000F004F9401B41F247
:10110C00883398422AD8184B1B6A13F0020FF3D07D
:10111C0015490B6A23F44072636813430B621EB1CA
:10112C00CB6923F08053CB61236813F0020F06D0F8
:10113C000D494B6823F44042A36813434B6023686A
:10114C0013F0100F0CD008494B6823F48002E368AD
:10115C0013434B60002004E0032002E0032000E076
:10116C00002002B070BD00BF0010024000700040B3
:10117C004004424270B586B006463B4D02AC28682E
:10118C006968AA68EB680FC42B8AADF80430022E8C
:10119C004ED0102E02D0012E55D12DE0334B5A6873
:1011AC001B6813F0807F50D0C2F3834306A90B4415
:1011BC0013F8103C12F480320ED02C494968C1F35C
:1011CC00404106A8014411F8140C4AB1284AB2FB5C
:1011DC00F0F000FB03F004E0264800FB03F000E015
:1011EC000020224B5B6813F4800F3AD14000224B55
:1011FC00A3FB0030400834E01C4B1B6A40F2023267
:10120C001A40B2F5817F22D003F44073B3F5007F0E
:10121C0004D1164A526A12F0020F1BD1B3F5407F6B
:10122C001BD1124B1B6813F4003F18D1002018E09F
:10123C00FFF7BAFA0D4B5B68C3F3813301335B00E4
:10124C00B0FBF3F00DE000200BE0002009E04FF4C0
:10125C00004006E049F6404003E0002001E04FF278
:10126C00244006B070BD00BFE01C00080010024016
:10127C0000127A0000093D00ABAAAAAA10B50446D8
:10128C000E4B18784FF47A73B3FBF0F30C4A1068DA
:10129C00B0FBF3F0FFF7E0FD58B90F2C0BD8002290
:1012AC0021464FF0FF30FFF7A5FD064B1C600020D8
:1012BC0010BD012010BD012010BD00BF0400002096
:1012CC00080000200000002008B5074A136843F00E
:1012DC00100313600320FFF77BFD0020FFF7CEFF08
:1012EC0000F008FC002008BD00200240034A1368EF
:1012FC00034909780B441360704700BF2800002095
:10130C0004000020014B1868704700BF2800002023
:10131C0038B50446FFF7F6FF0546B4F1FF3F02D09F
:10132C00044B1B781C44FFF7EDFF401B8442FAD89A
:10133C0038BD00BF04000020F0B583B005460C4654
:10134C0000230193FFF7DEFF2B689A6812F4807F6D
:10135C0008D0AB6A43F02003AB62002385F824303D
:10136C00012097E006465A6812F4807F1CD1DB6A94
:10137C0013F4700F12D017E0B4F1FF3F0ED024B16C
:10138C00FFF7C0FF801B844208D2AB6A43F0040312
:10139C00AB62002385F8243003207BE02B681B68AC
:1013AC0013F0020FE8D051E03B4B1F680220FFF70F
:1013BC00E1FEB7FBF0F72B681969384A11420ED1E0
:1013CC00D96802F15C42114209D11969344A1142BF
:1013DC0018D1DA68334B1A4216D029201BE0196950
:1013EC002F4A114204D1D96802F16E4211420DD03C
:1013FC0019692D4A0A405AB9DA682B4B13404BB184
:10140C00FC2008E0292006E0142004E0542002E02F
:10141C00FC2000E0542007FB00F714E0B4F1FF3F80
:10142C000ED024B1FFF76EFF801B844208D2AB6A4A
:10143C0043F00403AB62002385F82430032029E039
:10144C00019B01330193019B9F42E7D82B686FF0FE
:10145C0012021A60AB6A43F40073AB622B689B6890
:10146C0003F46023B3F5602F0FD12B7B7BB9AB6AF0
:10147C0023F48073AB62AB6A13F4805F09D1AB6A5F
:10148C0043F00103AB62002004E0002002E00020E6
:10149C0000E0002003B0F0BD080000202449922495
:1014AC009224491292244900499224000368D86C72
:1014BC00704700BF70B483B00023019390F82430C0
:1014CC00012B00F08880012380F824304B68062B18
:1014DC000ED80668756B03EB8303053B1F249C40F9
:1014EC0025EA04040A6802FA03F3234373631EE03B
:1014FC000C2B0ED805682A6B03EB8303233B1F24AC
:10150C009C4022EA04040A6802FA03F323432B6387
:10151C000DE00568EA6A03EB8303413B1F249C4002
:10152C0022EA04040A6802FA03F32343EB620B6811
:10153C00092B0ED90668F56803EB43031E3B072401
:10154C009C4025EA04048A6802FA03F32343F360FF
:10155C000CE00668356903EB430307249C4025EA3D
:10156C0004048A6802FA03F3234333610B68103BCB
:10157C00012B26D803681A4A93421CD19A6812F49C
:10158C00000F20D19A6842F400029A600B68102B6D
:10159C001BD1144B1B68144AA2FB03239B0C03EBBB
:1015AC0083035A00019202E0019B013B0193019BD2
:1015BC00002BF9D10AE0836A43F0200383620123F4
:1015CC0004E0002302E0002300E00023002280F866
:1015DC002420184600E0022003B070BC704700BF06
:1015EC00002401400800002083DE1B4330B583B08B
:1015FC000023019303689A6812F0010F2FD19A68A7
:10160C0042F001029A60174B1B68174AA2FB032396
:10161C009B0C019302E0019B013B0193019B002B6E
:10162C00F9D10446FFF76EFE054611E0FFF76AFE9E
:10163C00401B02280CD9A36A43F01003A362E36A8F
:10164C0043F00103E362002384F82430012007E017
:10165C0023689B6813F0010FE8D0002000E0002005
:10166C0003B030BD0800002083DE1B4390F824300B
:10167C00012B71D010B50446012380F82430FFF7FC
:10168C00B5FF0346002863D1A26A22F4407222F00F
:10169C00010242F48072A262226830498A4205D16A
:1016AC00A1F58061496811F4702F0ED1A16A21F463
:1016BC008011A162516811F4806F1CD0A16A21F4D1
:1016CC00405141F48051A16215E0A16A41F48011AE
:1016DC00A16223498A4203D001F580618A420AD172
:1016EC001F49496811F4806F05D0A16A21F440515B
:1016FC0041F48051A162A16A11F4805F04D0E16AC7
:10170C0021F00601E16201E00021E162002184F890
:10171C0024106FF0020111602268916801F46021BD
:10172C00B1F5602F0ED10D498A4205D1A1F580612A
:10173C00496811F4702F05D1916841F4A0019160B2
:10174C00184610BD916841F480119160184610BD87
:10175C00002284F8242010BD02207047002801408C
:10176C000024014038B503689A6812F0010F1ED0AE
:10177C0004469A6822F001029A60FFF7C3FD054601
:10178C000EE0FFF7BFFD401B022809D9A36A43F006
:10179C001003A362E36A43F00103E362012038BD46
:1017AC0023689B6813F0010FEBD1002038BD00209B
:1017BC0038BD00BF00287DD038B50446836A23B9F4
:1017CC00C36280F8243000F0B7F92046FFF7CAFF57
:1017DC00A36A13F0100F67D1002865D1A36A23F414
:1017EC00885323F0020343F00203A3626268E369A7
:1017FC001343217B43EA4103A268B2F5807F04D0F6
:10180C00012A05D14FF4807503E04FF4807500E098
:10181C000025227D012A0FD131B9A269013A45EA8E
:10182C00423242F4006507E0A26A42F02002A26252
:10183C00E26A42F00102E26221684A6822F46942DB
:10184C002A434A6021688D681B4A2A401A438A60E1
:10185C00A268B2F5807F01D0012A03D12269013A36
:10186C00110500E000212568EA6A22F470020A439F
:10187C00EA6222689168114A0A40934208D1002317
:10188C00E362A36A23F0030343F00103A36238BDB0
:10189C00A36A23F0120343F01003A362E36A43F03C
:1018AC000103E362012038BDA36A43F01003A36275
:1018BC00012038BD01207047FDF7E1FFFE0E1FFF30
:1018CC0082B00A4B9A6942F020029A619A6902F03E
:1018DC0020020092009A9A6942F004029A619B6974
:1018EC0003F004030193019B02B070470010024007
:1018FC0070B584B000250195029503950C4C0D4BE9
:10190C002360A560257325754FF46023E361656042
:10191C00012626612046FFF74DFF0723019302960F
:10192C00039501A92046FFF7C5FD04B070BD00BFAB
:10193C002C0000200024014030B58FB000240A9404
:10194C000B940C940D9408940994019402940394B0
:10195C000494059406940794164D4FF080432B6025
:10196C006C60AC604FF6FF73EB602C618023AB6155
:10197C002846FFF711F84FF480530A930AA928461A
:10198C00FFF7ECF82846FFF723F80894099408A908
:10199C002846FFF781F96023019302940394059480
:1019AC00224601A92846FFF75FF8284600F004F903
:1019BC000FB030BD5C00002030B595B0282200215E
:1019CC000DEB020000F068F90024059406940794CE
:1019DC0008940994019402940394049401220A92A9
:1019EC004FF480330B930E920225119512934FF402
:1019FC00E01313930AA8FEF7C7FB0F230593069574
:101A0C0007944FF4806308930994294605A8FEF7C0
:101A1C000DFE01954FF40043039301A8FFF720FB43
:101A2C0015B030BD10B5FFF74FFCFFF7C5FFFFF742
:101A3C0047FFFFF75DFFFFF77FFF00210D48FFF722
:101A4C000FF90D48FFF74CF90B4C2046FFF70EFE33
:101A5C0001212046FFF770FC2046FFF727FD074BBE
:101A6C0003EA00104FF0804358630120FFF750FC4D
:101A7C00EAE700BF5C0000202C000020F0FF0F0004
:101A8C000F4B1A6842F001021A6059680D4A0A405D
:101A9C005A601A6822F0847222F480321A601A6832
:101AAC0022F480221A605A6822F4FE025A604FF423
:101ABC001F029A604FF00062034B9A60704700BFA0
:101ACC00001002400000FFF800ED00E0704700BF7E
:101ADC00FEE700BFFEE700BFFEE700BFFEE700BF6A
:101AEC00704700BF704700BF704700BF08B5FFF7D5
:101AFC00FDFB08BD82B00E4B9A6942F001029A615F
:101B0C009A6902F001020092009ADA6942F080525E
:101B1C00DA61DB6903F080530193019B054A53683A
:101B2C0023F0E06343F08063536002B0704700BF62
:101B3C00001002400000014000B587B00023029362
:101B4C000393049305930268104B9A421BD103F53F
:101B5C006C439A6942F400729A619A6902F40072B9
:101B6C000092009A9A6942F004029A619B6903F010
:101B7C0004030193019B802302930323039302A983
:101B8C000348FFF77FF907B05DF804FB0024014020
:101B9C00000801400368B3F1804F0CD182B003F50B
:101BAC000433DA6942F00102DA61DB6903F0010304
:101BBC000193019B02B0704700B587B000230293DC
:101BCC000393049305930368B3F1804F13D103F58A
:101BDC0004339A6942F004029A619B6903F004038E
:101BEC000193019B0123029302230393059302A902
:101BFC000248FFF747F907B05DF804FB0008014005
:101C0C00002103E00B4B5B58435004310A480B4B4B
:101C1C0042189A42F6D30A4A02E0002342F8043BE7
:101C2C00084B9A42F9D3FFF72BFF00F00FF8FFF7A0
:101C3C00F9FE7047141D0008000000200C00002065
:101C4C000C0000209C000020FEE700000E4B70B53D
:101C5C001E460E4C0025E41AA410A54204D056F8DA
:101C6C00253098470135F8E700F01EF8084B094C71
:101C7C001E46E41AA4100025A54204D056F82530BF
:101C8C0098470135F8E770BD0C1D00080C1D0008C5
:101C9C000C1D0008101D000803460244934202D09C
:101CAC0003F8011BFAE77047F8B500BFF8BC08BC95
:101CBC009E467047F8B500BFF8BC08BC9E467047FE
:101CCC0002030405060708090A0B0C0D0E0F101071
:101CDC000102000002030405060708090A0B0C0D9B
:101CEC000E0F1010010200000000000000000000A8
:101CFC0001020304060708090000000001020304A6
:041D0C003101000899
:041D10000D010008B9
:0C1D140010000000010000000024F4009A
:0400000508001C0DC6
:00000001FF
