:020000040800F2
:100000000050002095260008F9200008FD20000877
:100010000121000805210008092100080000000056
:100020000000000000000000000000000D2100089A
:100030001121000800000000152100081921000806
:10004000DD260008DD260008DD260008DD26000884
:10005000DD260008DD260008DD260008DD26000874
:10006000DD260008DD260008DD2600082521000821
:10007000DD260008DD260008DD260008DD26000854
:10008000DD260008DD260008DD260008DD26000844
:10009000DD260008DD260008DD260008DD26000834
:1000A000DD260008DD260008DD260008DD26000824
:1000B000DD260008DD260008DD260008DD26000814
:1000C000DD260008DD260008DD260008DD26000804
:1000D000DD260008DD260008DD260008DD260008F4
:1000E000DD260008DD260008DD26000800000000EF
:1000F0000000000000000000000000000000000000
:0C01000000000000000000005FF808F1A3
:10010C0010B5054C237833B9044B13B10448AFF345
:10011C0000800123237010BD70000020000000003F
:10012C000C300008084B10B51BB108490848AFF358
:10013C0000800848036803B910BD074B002BFBD0A7
:10014C00BDE81040184700BF0000000074000020FC
:10015C000C300008700000200000000030B583B0A7
:10016C000446036813F0010F00F09680B24B5B68F5
:10017C0003F00C03042B0AD0AF4B5B6803F00C03A9
:10018C00082B1BD1AC4B5B6813F4803F16D04FF49B
:10019C00003393FAA3F3A84B1A684FF4003393FA85
:1001AC00A3F3B3FA83F303F01F0322FA03F313F060
:1001BC00010F71D06368002B6ED1A0E26368B3F5B8
:1001CC00803F05D19C4A136843F48033136026E0CA
:1001DC0063B903F1804303F504331A6822F48032C7
:1001EC001A601A6822F480221A6018E0B3F5A02F66
:1001FC000CD103F18043A3F53C331A6842F48022FE
:10020C001A601A6842F480321A6008E08A4B1A6845
:10021C0022F480321A601A6822F480221A60636811
:10022C00EBB101F0DBF8054605E001F0D7F8401B17
:10023C00642800F266824FF4003393FAA3F37E4BEA
:10024C001A684FF4003393FAA3F3B3FA83F303F071
:10025C001F0322FA03F313F0010FE6D01CE001F0A8
:10026C00BDF8054605E001F0B9F8401B642800F222
:10027C004A824FF4003393FAA3F36F4B1A684FF48E
:10028C00003393FAA3F3B3FA83F303F01F0322FAB8
:10029C0003F313F0010FE6D1236813F0020F00F003
:1002AC009080654B5B6813F00C0F0AD0624B5B6857
:1002BC0003F00C03082B27D15F4B5B6813F4803FD2
:1002CC0022D1022393FAA3F35B4B1A68022393FA0D
:1002DC00A3F3B3FA83F303F01F0322FA03F313F02F
:1002EC00010F03D02369012B40F00F8252480368A1
:1002FC0023F0F8016369F82292FAA2F2B2FA82F2C0
:10030C0093400B4303605CE023699BB3012292FA98
:10031C00A2F3B3FA83F39B0003F1844303F5840344
:10032C001A6001F05BF8054605E001F057F8401B38
:10033C00022800F2EC81022393FAA3F33E4B1A68D5
:10034C00022393FAA3F3B3FA83F303F01F0322FA05
:10035C0003F313F0010FE8D03748036823F0F801DA
:10036C006369F82292FAA2F2B2FA82F293400B433A
:10037C00036026E0012393FAA3F3B3FA83F39B0003
:10038C0003F1844303F5840300221A6001F026F87C
:10039C00054605E001F022F8401B022800F2B98165
:1003AC00022393FAA3F3244B1A68022393FAA3F3C0
:1003BC00B3FA83F303F01F0322FA03F313F0010FD4
:1003CC00E8D1236813F0080F52D0A3693BB3012284
:1003DC0092FAA2F3B3FA83F3184941F8232000F000
:1003EC00FDFF054605E000F0F9FF401B022800F276
:1003FC009281022393FAA3F293FAA3F20E4A526A61
:10040C0093FAA3F3B3FA83F303F01F0322FA03F373
:10041C0013F0010FE7D0012000F0E6FF28E00123E4
:10042C0093FAA3F3B3FA83F30021044A42F823109E
:10043C0000F0D4FF054609E000100240800442425F
:10044C0000F0CCFF401B022800F26781022393FAD4
:10045C00A3F293FAA3F2BA4A526A93FAA3F3B3FA49
:10046C0083F303F01F0322FA03F313F0010FE7D118
:10047C00236813F0040F00F0A180B14BDA6942F04D
:10048C008052DA61DB6903F080530193019BAD4A22
:10049C00136843F48073136000F0A0FF054605E079
:1004AC0000F09CFF401B642800F23981A54B1B68AF
:1004BC0013F4807FF4D0E368012B05D1A04A136AB2
:1004CC0043F00103136222E063B903F1804303F5A7
:1004DC0004331A6A22F001021A621A6A22F0040228
:1004EC001A6214E0052B09D1954B1A6A42F00402EA
:1004FC001A621A6A42F001021A6208E0904B1A6AF8
:10050C0022F001021A621A6A22F004021A62E368EB
:10051C0053B300F063FF054607E000F05FFF401B9C
:10052C0041F28833984200F2FC80022393FAA3F242
:10053C0093FAA3F3B3FA83F35B0943F00203DBB240
:10054C00022B02D17E4B1A6A01E07D4B5A6A0223C0
:10055C0093FAA3F3B3FA83F303F01F0322FA03F322
:10056C0013F0010FD9D029E000F038FF054607E061
:10057C0000F034FF401B41F28833984200F2D380E4
:10058C00022393FAA3F293FAA3F3B3FA83F35B096E
:10059C0043F00203DBB2022B02D1694B1A6A01E071
:1005AC00674B5A6A022393FAA3F3B3FA83F303F06B
:1005BC001F0322FA03F313F0010FD9D1E369002BC7
:1005CC0000F0B3805E4A526802F00C02082A00F078
:1005DC00AE80022B68D14FF0807393FAA3F3B3FA79
:1005EC0083F39B0003F1844303F5840300221A6018
:1005FC0000F0F4FE054605E000F0F0FE401B02287A
:10060C0000F297804FF0007393FAA3F34C4B1A68E7
:10061C004FF0007393FAA3F3B3FA83F303F01F03C1
:10062C0022FA03F313F0010FE6D1236AB3F5803FEE
:10063C0006D143494B6823F40032A36813434B6043
:10064C003F48436823F47411236A626A13430B43D3
:10065C0043604FF0807393FAA3F3B3FA83F39B00D8
:10066C0003F1844303F5840301221A6000F0B6FE03
:10067C00044604E000F0B2FE001B02285BD84FF0E9
:10068C00007393FAA3F32E4B1A684FF0007393FA8E
:10069C00A3F3B3FA83F303F01F0322FA03F313F06B
:1006AC00010FE7D0002049E04FF0807393FAA3F3D9
:1006BC00B3FA83F39B0003F1844303F58403002214
:1006CC001A6000F08BFE044604E000F087FE001B6D
:1006DC00022832D84FF0007393FAA3F3184B1A6820
:1006EC004FF0007393FAA3F3B3FA83F303F01F03F1
:1006FC0022FA03F313F0010FE7D100201EE00120D2
:10070C001CE003201AE0032018E0012016E003206F
:10071C0014E0032012E0032010E003200EE003207D
:10072C000CE003200AE0032008E0002006E0012092
:10073C0004E0032002E0032000E0032003B030BDFE
:10074C00001002400070004030B486B01F4D02AC67
:10075C0028686968AA68EB680FC42B8AADF8043066
:10076C001B4B5B6803F00C02082A2AD103F47011AE
:10077C004FF4701292FAA2F2B2FA82F221FA02F259
:10078C0006A90A4412F8102C13F4803F15D0104B14
:10079C005B6803F400314FF4003393FAA3F3B3FA1C
:1007AC0083F321FA03F306A90B4413F8140C094B39
:1007BC00B3FBF0F000FB02F004E0074800FB02F092
:1007CC0000E0044806B030BC704700BFA42F0008FE
:1007DC000010024000127A0000093D0070B5744B05
:1007EC001B6803F007038B420BD2714A136823F08A
:1007FC0007030B431360136803F00703994240F09F
:10080C00C680036813F0020F06D06A4C636823F0AD
:10081C00F0028368134363600D460446036813F0CB
:10082C00010F75D04268012A13D14FF4003393FAAB
:10083C00A3F3604B19684FF4003393FAA3F3B3FAA4
:10084C0083F303F01F0321FA03F313F0010F27D1F5
:10085C009FE0022A13D14FF0007393FAA3F3554B88
:10086C0019684FF0007393FAA3F3B3FA83F303F010
:10087C001F0321FA03F313F0010F11D18BE00223B4
:10088C0093FAA3F34B4B1968022393FAA3F3B3FA2D
:10089C0083F303F01F0321FA03F313F0010F7CD051
:1008AC0044494B6823F0030313434B6000F096FD5F
:1008BC0006466368012B0ED106E000F08FFD801B0D
:1008CC0041F2883398426AD83A4B5B6803F00C03C8
:1008DC00042BF2D11CE0022B15D106E000F07EFDBA
:1008EC00801B41F2883398425BD8324B5B6803F033
:1008FC000C03082BF2D10BE000F070FD801B41F2D1
:10090C00883398424FD82B4B5B6813F00C0FF3D104
:10091C00274B1B6803F007039D420AD2244A136835
:10092C0023F007032B431360136803F007039D4266
:10093C003BD1236813F0040F06D01E494B6823F4F7
:10094C00E062E36813434B60236813F0080F07D091
:10095C00184A536823F46053216943EAC103536076
:10096C00FFF7F2FE134B5B6803F0F002F02393FAEF
:10097C00A3F3B3FA83F322FA03F30F4AD35CD84000
:10098C000E4B1860002000F0FBFC002070BD012015
:10099C0070BD012070BD012070BD012070BD032011
:1009AC0070BD032070BD032070BD012070BD00BF61
:1009BC000020024000100240B82F00080000002068
:1009CC00014B1868704700BF0000002008B5FFF706
:1009DC00F7FF084B5B6803F4E0624FF4E06393FAB3
:1009EC00A3F3B3FA83F322FA03F3034AD35CD8409C
:1009FC0008BD00BF00100240C82F000808B5FFF763
:100A0C00DFFF084B5B6803F460524FF4605393FABA
:100A1C00A3F3B3FA83F322FA03F3034AD35CD8406B
:100A2C0008BD00BF00100240C82F000870B4036A54
:100A3C0023F001030362036A4668826922F07302A1
:100A4C000C6842EA040523F002028B6813430C4C39
:100A5C00A04205D123F00803CA68134323F0040312
:100A6C00074CA04205D126F440764A6932438E6980
:100A7C001643466085614A684263036270BC7047E6
:100A8C00002C014030B4036A23F480730362036AC0
:100A9C004568C26922F073020C68224323F4007388
:100AAC008C6843EA04230E4CA04206D123F4006365
:100ABC00CC6843EA042323F48063094CA04207D199
:100ACC0025F440554C6945EA04158C6945EA041532
:100ADC004560C2614A68C263036230BC704700BFA4
:100AEC00002C014030B4036A23F480530362036A80
:100AFC004468C26922F4E6420D6842EA052223F4F6
:100B0C0000538D6843EA0533074DA84204D124F401
:100B1C0080444D6944EA85144460C2614A680264A9
:100B2C00036230BC704700BF002C014010B4036A54
:100B3C00046A24F001040462846924F0F00444EA99
:100B4C00021223F00A0319438261016210BC704740
:100B5C0010B4036A23F0100303628469036A24F45B
:100B6C00704444EA023223F0A00343EA011182618B
:100B7C00016210BC704700BF836823F0700341F022
:100B8C00070119438160704710B4846824F47F44D2
:100B9C0042EA0323194344EA0103836010BC704703
:100BAC00704700BF704700BF90F83830012B00F041
:100BBC00838010B50446012380F83830022380F876
:100BCC0039300268936823F47F4323F077039360F2
:100BDC000B68402B4CD00AD8102B58D002D8002BC5
:100BEC0050D062E0202B57D0302B5AD05DE0702BC8
:100BFC0012D004D8502B27D0602B2FD055E0B3F552
:100C0C00805F03D0B3F5005F12D04EE002689368AA
:100C1C0023F00703936048E0CB684A688968006852
:100C2C00FFF7B2FF2268936843F0770393603CE0D0
:100C3C00CB684A6889680068FFF7A6FF226893684A
:100C4C0043F48043936030E0CA6849680068FFF75A
:100C5C006DFF50212068FFF78FFF26E0CA684968B6
:100C6C000068FFF775FF60212068FFF785FF1CE027
:100C7C00CA6849680068FFF759FF40212068FFF7F0
:100C8C007BFF12E000210068FFF776FF0DE01021DA
:100C9C000068FFF771FF08E020210068FFF76CFF88
:100CAC0003E030210068FFF767FF012384F8393037
:100CBC00002084F8380010BD022070470368184AE1
:100CCC0090420AD0B0F1804F07D0A2F594329042F6
:100CDC0003D002F58062904203D123F070034A687E
:100CEC0013430F4A90420AD0B0F1804F07D0A2F5BF
:100CFC009432904203D002F58062904203D123F4E7
:100D0C004073CA68134303608B68C3620B688362C9
:100D1C00034B984201D10B69036301234361704774
:100D2C00002C0140B8B110B5044690F8393013F0DE
:100D3C00FF0F04D1002380F83830FFF731FF022376
:100D4C0084F83930211D2068FFF7B8FF012384F89F
:100D5C003930002010BD0120704700BFB8B110B56C
:100D6C00044690F8393013F0FF0F04D1002380F8BB
:100D7C003830FFF717FF022384F83930211D206823
:100D8C00FFF79CFF012384F83930002010BD0120AF
:100D9C00704700BF30B4036A23F010030362036A88
:100DAC004468826922F4E6420D6842EA052223F087
:100DBC0020038D6843EA05130D4DA84206D123F09C
:100DCC008003CD6843EA051323F04003084DA84285
:100DDC0007D124F440644D6944EA85048D6944EAE2
:100DEC008504446082614A688263036230BC704748
:100DFC00002C014038B590F83830012B66D00D46E8
:100E0C000446012380F83830022380F839300C2A4C
:100E1C0055D8DFE802F0075454541A5454542E5445
:100E2C00545441000068FFF701FE2268936943F0B7
:100E3C00080393612268936923F004039361226889
:100E4C0091692B690B43936139E00068FFF7A2FFAE
:100E5C002268936943F4006393612268936923F4D5
:100E6C008063936122689369296943EA0123936142
:100E7C0025E00068FFF706FE2268D36943F00803FB
:100E8C00D3612268D36923F00403D3612268D1694A
:100E9C002B690B43D36112E00068FFF723FE226835
:100EAC00D36943F40063D3612268D36923F480636C
:100EBC00D3612268D369296943EA0123D3610123F1
:100ECC0084F83930002084F8380038BD022038BD51
:100EDC0010B4012303FA01F4036A23EA0403036246
:100EEC00036A8A401A43026210BC704710B504466C
:100EFC0001220068FFF7ECFF2368074A934203D1F5
:100F0C005A6C42F400425A642268136843F001039D
:100F1C001360002010BD00BF002C014090F8383049
:100F2C00012B21D030B4012280F83820022380F824
:100F3C0039300468636823F0700363600468656883
:100F4C000B682B4363600468A36823F08003A360E1
:100F5C000468A5684B682B43A36080F839200023F4
:100F6C0080F83830184601E00220704730BC7047DA
:100F7C00074AD36823F4E0631B041B0C000200F443
:100F8C00E060184340F0BF6040F40030D060704720
:100F9C0000ED00E030B4164BDB68C3F30223C3F161
:100FAC000704042C28BF04241D1D062D01D9DD1EA9
:100FBC0000E00025012303FA04F4013C2140A94080
:100FCC00AB40013B1A400A43002806DA00F00F0040
:100FDC001201D2B2074B1A5407E01201D2B200F13F
:100FEC00604000F5614080F8002330BC704700BFC2
:100FFC0000ED00E014ED00E0420900F01F000123B9
:10100C0003FA00F0014B43F82200704700E100E0C6
:10101C000138B0F1807F0AD2064B5860F021064AA5
:10102C0082F823100020986007221A607047012074
:10103C00704700BF10E000E000ED00E0042805D18F
:10104C00054A136843F0040313607047024A13689F
:10105C0023F004031360704710E000E0704700BFFA
:10106C0008B5FFF7FBFF08BDF0B583B0002634468A
:10107C00D5E00122A2400B6813409A4240F0CE808A
:10108C004D68122D2DD00BD8022D27D003D85DB36F
:10109C00012D1ED035E0032D30D0112D1BD030E0AA
:1010AC00614FBD4220D008D8A7F58017BD421BD098
:1010BC0007F58037BD4224D116E05C4FBD4213D0FA
:1010CC0007F58037BD420FD0A7F58017BD4218D168
:1010DC000AE0CE6815E0CE68043612E0CE68083619
:1010EC000FE0CE680C360CE08D684DB1012D02D1AD
:1010FC000261082605E04261082602E0002600E0B5
:10110C000426FF2B01D8864601E000F1040EFF2BCC
:10111C0001D8A20002E0A4F108029200DEF80070EF
:10112C000F25954027EA050506FA02F22A43CEF868
:10113C0000204A6812F0805F70D03D4A956945F0F6
:10114C0001059561926902F001020192019AA708CA
:10115C00BD1C384A52F8255004F0030292004FF09F
:10116C000F0E0EFA02FE25EA0E0E334DA8420DD0DC
:10117C0005F58065A8420BD005F58065A84209D01D
:10118C0005F58065A84207D1032506E0002504E09B
:10119C00012502E0022500E0042505FA02F24EEAE0
:1011AC0002020237234D45F827204A6812F4803F8B
:1011BC0005D005F580652A681A432A6004E01F4DA6
:1011CC002A6822EA03022A604A6812F4003F04D01B
:1011DC001A4D6A681A436A6004E0184D6A6822EA7C
:1011EC0003026A604A6812F4801F04D0134DAA6887
:1011FC001A43AA6004E0114DAA6822EA0302AA600D
:10120C004A6812F4001F04D00C4DEA681343EB60DB
:10121C0004E00A4DEA6822EA0303EB6001340F2C68
:10122C007FF627AF03B0F0BD000021100000311095
:10123C000010024000000140000801400004014081
:10124C00C3685940C1607047F0B583B00446036869
:10125C0013F0010F6FD0474BDA6942F08052DA611C
:10126C00DB6903F080530193019B434A136843F4F9
:10127C008073136000F0B2F8054604E000F0AEF89D
:10128C00401B64286FD83C4B1B6813F4807FF5D04F
:10129C00384B1B6A13F4407346D0626802F44072F8
:1012AC00934241D03348016A21F440764FF48033A5
:1012BC0093FAA3F2B2FA82F2304D012745F822706C
:1012CC0093FAA3F3B3FA83F3002245F823200662C2
:1012DC0011F0010F28D000F081F8054606E000F06F
:1012EC007DF8401B41F2883398423ED8022393FA92
:1012FC00A3F293FAA3F3B3FA83F35B0943F002036B
:10130C00DBB2022B02D11B4B1A6A01E0194B5A6A51
:10131C00022393FAA3F3B3FA83F303F01F0322FA25
:10132C0003F313F0010FDAD012490B6A23F4407265
:10133C00636813430B62236813F0020F06D00D4948
:10134C004B6823F44042A36813434B60236813F0AB
:10135C00100F0CD007494B6823F48002E368134349
:10136C004B60002004E0032002E0032000E000209A
:10137C0003B0F0BD00100240007000400004424277
:10138C0010B50446FFF71CFB064BA3FB003080098D
:10139C00FFF73EFE002221464FF0FF30FFF7FAFD2B
:1013AC00002010BDD34D621008B5074A136843F0F6
:1013BC00100313600320FFF7DBFD0020FFF7E0FFB5
:1013CC0000F0B2FE002008BD00200240024A136863
:1013DC0001331360704700BF8C000020014B18686C
:1013EC00704700BF8C00002010B582B00190FFF751
:1013FC00F5FF0446FFF7F2FF001B019B9842F9D35F
:10140C0002B010BD704700BF08B5436A9A6A12F06B
:10141C00500F1CD19A6A42F400729A621A68926850
:10142C0002F46022B2F5602F0DD1DA685AB99A6ACB
:10143C0022F480729A629A6A12F4805F03D19A6ADB
:10144C0042F001029A621846FFF7DCFF08BD1B6AE6
:10145C001B6B984708BD00BF704700BF08B5406ABA
:10146C00FFF7FAFF08BD00BF704700BF08B5406A20
:10147C00836A43F040038362C36A43F00403C3628C
:10148C00FFF7F2FF08BD00BFF0B482B00023019358
:10149C0090F82430012B00F0C780012380F8243011
:1014AC004B68062B1BD80668756B4FF4787292FA52
:1014BC00A2F4B4FA84F4013B03FB04F41F2707FAEB
:1014CC0004F425EA04040D6892FAA2F2B2FA82F24C
:1014DC0003FB02F205FA02F22243726337E00C2B93
:1014EC001AD80668376B4FF4787292FAA2F5B5FAEF
:1014FC0085F5073B03FB05F51F2404FA05F527EAE0
:10150C0005050C6892FAA2F2B2FA82F203FB02F31E
:10151C009C402C4334631AE00668F46A4FF47872EA
:10152C0092FAA2F5B5FA85F50D3B03FB05F51F27DD
:10153C0007FA05F524EA05050C6892FAA2F2B2FA4C
:10154C0082F203FB02F304FA03F32B43F3620D68FC
:10155C00092D1BD90668F768382292FAA2F4B4FA5E
:10156C0084F4A5F10A0303FB04F4072505FA04F43B
:10157C0027EA04048D6892FAA2F2B2FA82F203FB13
:10158C0002F305FA03F22243F26018E007683E69A1
:10159C00382292FAA2F4B4FA84F405FB04F407237B
:1015AC0003FA04F426EA04048E6892FAA2F2B2FA60
:1015BC0082F205FB02F306FA03F323433B610B684B
:1015CC00103B012B26D80368194A93421CD19A6808
:1015DC0012F4000F20D19A6842F400029A600B6852
:1015EC00102B1BD1134B1B68134AA2FB03239B0C20
:1015FC0003EB83035A00019202E0019B013B019330
:10160C00019B002BF9D10AE0836A43F0200383622B
:10161C00012304E0002302E0002300E00023002269
:10162C0080F82420184600E0022002B0F0BC70477D
:10163C00002401400000002083DE1B4330B583B042
:10164C000023019303689A6812F0010F2FD19A6856
:10165C0042F001029A60174B1B68174AA2FB032346
:10166C009B0C019302E0019B013B0193019B002B1E
:10167C00F9D10446FFF7B2FE054611E0FFF7AEFEC6
:10168C00401B02280CD9A36A43F01003A362E36A3F
:10169C0043F00103E362002384F82430012007E0C7
:1016AC0023689B6813F0010FE8D0002000E00020B5
:1016BC0003B030BD0000002083DE1B43F8B5046886
:1016CC004A4DAC4203D005F58065AC4205D1474B81
:1016DC005B6813F4702F40F0858090F82440012C47
:1016EC0000F0828017460E460446012380F8243011
:1016FC00FFF7A4FF0546002870D1A36A23F470639A
:10170C0023F0010343F48073A3622268384B9A429E
:10171C0005D1A3F580635B6813F4702F0ED1A36A17
:10172C0023F48013A362536813F4806F1CD0A36A54
:10173C0023F4405343F48053A36215E0A36A43F4AB
:10174C008013A362294B9A4203D003F580639A421B
:10175C000AD1264B5B6813F4806F05D0A36A23F47F
:10176C00405343F48053A362A36A13F4805F04D004
:10177C00E36A23F00603E36201E00023E362002343
:10178C0084F82430236A1B4A9A62236A1A4ADA6262
:10179C00236A1A4A1A6323686FF002021A602268DD
:1017AC00936843F48073936021683B4632464C3116
:1017BC00206A00F011FB2268936803F46023B3F5F0
:1017CC00602F05D1936843F4A00393602846F8BDBD
:1017DC00936843F4801393602846F8BD002384F883
:1017EC002430F8BD0120F8BD0220F8BD00240140D2
:1017FC000028014015140008691400087914000829
:10180C0038B503689A6812F0010F1ED004469A6826
:10181C0022F001029A60FFF7E1FD05460EE0FFF7AA
:10182C00DDFD401B022809D9A36A43F01003A36213
:10183C00E36A43F00103E362012038BD23689B682F
:10184C0013F0010FEBD1002038BD002038BD00BFD4
:10185C00002800F0918038B50446836A23B9C3622E
:10186C0080F8243000F0A8FC2046FFF7C9FFA36ADB
:10187C0013F0100F7AD1002878D1A36A23F488537F
:10188C0023F0020343F00203A3626268E3691A4384
:10189C00E168022393FAA3F3B3FA83F301FA03F397
:1018AC001343A268B2F5807F04D0012A05D14FF40E
:1018BC00807503E04FF4807500E000256269012A11
:1018CC0015D161B9A269013A4FF4604191FAA1F1C5
:1018DC00B1FA81F18A4042F40062154307E0A26A32
:1018EC0042F02002A262E26A42F00102E262216846
:1018FC004A6822F469422A434A6021688D681F4A6B
:10190C002A401A438A60A268B2F5807F01D0012A6E
:10191C000AD12269013A4FF4700191FAA1F1B1FA9E
:10192C0081F102FA01F100E000212568EA6A22F453
:10193C0070020A43EA6222689168114A0A40934293
:10194C0008D10023E362A36A23F0030343F00103ED
:10195C00A36238BDA36A23F0120343F01003A36201
:10196C00E36A43F00103E362012038BDA36A43F04C
:10197C001003A362012038BD01207047FDF7E1FF81
:10198C00FE0E1FFF2DE9F843814601680B6923F415
:10199C004052C36813430B6181680369194343695F
:1019AC0019430068C26822F4B05323F00C030B43B4
:1019BC00C360D9F800104B6923F44072D9F8183081
:1019CC0013434B61D9F800505B4B9D4259D1FFF743
:1019DC0015F800EB800000EB8000D9F80440A4005F
:1019EC00B0FBF4F4554EA6FB043464092401FFF754
:1019FC0005F800EB800000EB8000D9F804309B0068
:101A0C00B0FBF3F7FEF7FAFF00EB800000EB800071
:101A1C00D9F804309B00B0FBF3F3A6FB03235B095E
:101A2C004FF0640808FB13731B013233A6FB03232E
:101A3C005B0903F0F0031C44FEF7E0FF00EB8000B1
:101A4C0000EB8000D9F804309B00B0FBF3F7FEF7F5
:101A5C00D5FF00EB800000EB8000D9F804309B0030
:101A6C00B0FBF3F3A6FB03235B0908FB13731B0109
:101A7C003233A6FB0323C3F343131C44AC60BDE811
:101A8C00F883FEF7A3FF00EB800000EB8000D9F891
:101A9C000440A400B0FBF4F4284EA6FB0434640903
:101AAC002401FEF793FF00EB800000EB8000D9F8D7
:101ABC0004309B00B0FBF3F7FEF788FF00EB8000CF
:101ACC0000EB8000D9F804309B00B0FBF3F3A6FBCD
:101ADC0003235B094FF0640808FB13731B013233BB
:101AEC00A6FB03235B0903F0F0031C44FEF76EFF17
:101AFC0000EB800000EB8000D9F804309B00B0FBB9
:101B0C00F3F7FEF763FF00EB800000EB8000D9F8E1
:101B1C0004309B00B0FBF3F3A6FB03235B0908FB2B
:101B2C0013731B013233A6FB0323C3F343131C446F
:101B3C00AC60BDE8F88300BF003801401F85EB5155
:101B4C002DE9F04105460E4690461C46FFF746FC33
:101B5C000746B8F1000F26D053E0B4F1FF3F22D076
:101B6C0024B1FFF73BFCC01B84421CD22A68D3680B
:101B7C0023F08003D3602A68D36823F02003D3605A
:101B8C002A68D36823F48073D3602A68536923F0DE
:101B9C0001035361012385F83930002385F838306F
:101BAC000320BDE8F0812B681B6836EA0303D4D10F
:101BBC000020BDE8F081B4F1FF3F22D024B1FFF743
:101BCC000DFCC01B84421CD22A68D36823F080030E
:101BDC00D3602A68D36823F02003D3602A68D368C3
:101BEC0023F48073D3602A68536923F00103536193
:101BFC00012385F83930002385F838300320BDE8FF
:101C0C00F0812B681B6836EA0303D4D00020BDE8B2
:101C1C00F08100BF58B310B5044690F8393013F07A
:101C2C00FF0F04D1002380F8383000F003FB0223AF
:101C3C0084F839302268D36823F40053D3602046EB
:101C4C00FFF7A0FE2268136923F490431361226806
:101C5C00536923F02A0353612268D36843F4005379
:101C6C00D3600020E063012384F8393010BD0120DB
:101C7C00704700BF70B504460D461E4690F83930CB
:101C8C00DBB2012B01D0222B5AD1002D5AD0002AC5
:101C9C005AD094F83830012B58D0012384F83830BE
:101CAC000023E36394F83930DBB2222B03D13223C7
:101CBC0084F8393002E0122384F83930A284E284AB
:101CCC0023E0013BE384A368B3F5805F12D1334674
:101CDC00002280212046FFF733FF002838D12268EC
:101CEC002B88C3F30803536023690BB902350CE04E
:101CFC0001350AE03346002280212046FFF720FF01
:101D0C0040BB23682A785A600135E38C002BD8D16C
:101D1C003346002240212046FFF712FF0346D8B974
:101D2C0094F83920D2B2322A03D1222284F83920F5
:101D3C0002E0012284F83920002284F838200CE0DB
:101D4C0002230AE0012308E0012306E0022304E059
:101D5C00032302E0032300E00323184670BD00BFF9
:101D6C0010B4046863604368102B04D103689A6054
:101D7C000368D96003E0036899600368DA6010BCFB
:101D8C00704700BF20B310B4034690F821200AB965
:101D9C0080F82020022283F821201C68226822F47B
:101DAC007F5121F0300158689A681043DA6810436B
:101DBC001A6910435A6910439A691043DA6902434D
:101DCC000A43226000205863012283F8212001E09D
:101DDC000120704710BC704738B590F82040012C9A
:101DEC0024D00446012084F82000022084F821002D
:101DFC002568286820F0010028602046FFF7B0FF16
:101E0C002268136843F0020313602268136843F0DE
:101E1C00040313602268136843F0080313602268FC
:101E2C00136843F001031360002038BD022038BD55
:101E3C0010B50446984B1A68036898498B4211D028
:101E4C0014318B4210D014318B420FD014318B4291
:101E5C000FD014318B420FD014318B420FD14FF471
:101E6C0000010EE008210CE080210AE04FF4006133
:101E7C0007E04FF4004104E04FF4002101E04FF083
:101E8C00006111423CD01A6812F0080F38D01A6861
:101E9C0022F008021A602368804A934211D014324F
:101EAC00934210D0143293420FD0143293420FD07D
:101EBC00143293420FD0143293420FD14FF40002DC
:101ECC000EE008220CE080220AE04FF4006207E0EA
:101EDC004FF4004204E04FF4002201E04FF00062A6
:101EEC006D4B5A60636B43F001036363042384F806
:101EFC002130002384F82030236B0BB12046984707
:101F0C00654B1A68236865498B4211D014318B429A
:101F1C0010D014318B420FD014318B420FD01431AE
:101F2C008B420FD014318B420FD14FF480010EE055
:101F3C0004210CE040210AE04FF4806107E04FF4EB
:101F4C00804104E04FF4802101E04FF080611142A8
:101F5C0039D01A6812F0040F35D01A6812F0200F1D
:101F6C0003D11A6822F004021A6023684B4A934288
:101F7C0011D01432934210D0143293420FD0143239
:101F8C0093420FD0143293420FD0143293420FD19C
:101F9C004FF480020EE004220CE040220AE04FF4E1
:101FAC00806207E04FF4804204E04FF4802201E0AD
:101FBC004FF08062384B5A60112384F82130E36A69
:101FCC000BB120469847344B1A68236833498B422F
:101FDC0011D014318B4210D014318B420FD01431EC
:101FEC008B420FD014318B420FD014318B420FD156
:101FFC004FF400110EE002210CE020210AE04FF416
:10200C00007107E04FF4005104E04FF4003101E09F
:10201C004FF0007111423ED01A6812F0020F3AD004
:10202C001A6812F0200F03D11A6822F002021A600B
:10203C0023681A4A934211D01432934210D01432AE
:10204C0093420FD0143293420FD0143293420FD0DC
:10205C00143293420FD14FF400120EE002220CE026
:10206C0020220AE04FF4007207E04FF4005204E023
:10207C004FF4003201E04FF00072074B5A60636B73
:10208C006363012384F82130002384F82030A36A91
:10209C000BB12046984710BD0000024008000240DA
:1020AC000F4B1A6842F001021A6059680D4A0A4037
:1020BC005A601A6822F0847222F480321A601A680C
:1020CC0022F480221A605A6822F4FE025A604FF4FD
:1020DC001F029A604FF00062034B9A60704700BF7A
:1020EC00001002400000FFF800ED00E0704700BF58
:1020FC00FEE700BFFEE700BFFEE700BFFEE700BF44
:10210C00704700BF704700BF704700BF08B5FFF7AE
:10211C005DF9FEF7A5FF08BD08B50248FFF788FE7C
:10212C0008BD00BF1801002000B583B0204B9A6990
:10213C0042F001029A619B6903F001030193019B38
:10214C000320FEF715FF002211466FF00B00FEF77F
:10215C0021FF002211466FF00A00FEF71BFF002240
:10216C0011466FF00900FEF715FF002211466FF0C3
:10217C000400FEF70FFF002211466FF00300FEF77C
:10218C0009FF002211466FF00100FEF703FF002249
:10219C0011464FF0FF30FEF7FDFE064A536823F060
:1021AC00E06343F00073536003B05DF804FB00BFC1
:1021BC00001002400000014002681A4B9A4230D1D4
:1021CC0010B586B0044603F56C439A6942F400726C
:1021DC009A619B6903F400730193019B0E23029394
:1021EC000323039302A91048FEF73EFF0F48104B40
:1021FC0003600023436083608022C2604FF48072CE
:10220C0002614FF48062426120228261C361FFF758
:10221C00B9FD08B100F0ACF8044B23625C6206B067
:10222C0010BD704700240140000801401801002037
:10223C00080002400268144B9A4224D110B586B0B3
:10224C0003F558439A6942F480429A619B6903F4FE
:10225C0080430193019B4FF4007302930223039379
:10226C0003230593094C02A92046FEF7FDFE4FF40B
:10227C008063029300230393049302A92046FEF784
:10228C00F3FE06B010BD7047003801400008014055
:10229C0082B00A4B9A6942F020029A619A6902F064
:1022AC0020020092009A9A6942F004029A619B699A
:1022BC0003F004030193019B02B07047001002402D
:1022CC0000B583B00A4B5A6942F001025A615B694E
:1022DC0003F001030193019B002211460B20FEF732
:1022EC0059FE0B20FEF788FE03B05DF804FB00BF1F
:1022FC000010024000B587B00B4B9A6942F0040203
:10230C009A619B6903F004030193019B00230493DE
:10231C000223039305930123029302A90348FEF7BA
:10232C00A3FE07B05DF804FB00100240000801405A
:10233C0000B587B00C4B9A6942F010029A619B6908
:10234C0003F010030193019B0023049301230393D7
:10235C00022305934FF40053029302A90348FEF79E
:10236C0083FE07B05DF804FB001002400010014032
:10237C00FEE700BF00B585B01B481C4B03604FF453
:10238C00807383600123C360002343614FF4602298
:10239C00C261436003230361FFF75AFA08B1FFF7E8
:1023AC00E7FF0123019302930523039301A90E4830
:1023BC00FFF76AF808B1FFF7DBFF022301930293E2
:1023CC0001A90948FFF760F808B1FFF7D1FF032313
:1023DC000193029301A90448FFF756F808B1FFF7DF
:1023EC00C7FF05B05DF804FBA000002000240140ED
:1023FC0008B50A480A4B03604FF416534360002398
:10240C008360C36003610C2242618361C361FFF787
:10241C0001FC08B1FFF7ACFF08BD00BFD0000020E5
:10242C000038014000B58FB0284BDA6942F0010248
:10243C00DA61DB6903F001030093009B00230A932C
:10244C000B930C930D9308930993019302930393AD
:10245C0004930593069307931D484FF08042026046
:10246C00436083604FF6FF72C2600361FEF75AFC53
:10247C0008B1FFF77DFF0EA94FF4805341F8103DD2
:10248C001348FEF791FB08B1FFF772FF1048FEF7F7
:10249C0065FC08B1FFF76CFF00230893099308A9AA
:1024AC000B48FEF73BFD08B1FFF762FF6023019379
:1024BC00002202920392059201A90548FEF79AFCAC
:1024CC0008B1FFF755FF0FB05DF804FB0010024098
:1024DC006001002000B595B001230A934FF48033BE
:1024EC000B9300220C920222119212934FF4E013E0
:1024FC0013930AA8FDF732FE08B1FFF739FF0F233B
:10250C00059302210691002307934FF480620892F1
:10251C00099305A8FEF762F908B1FFF729FF02231A
:10252C0001934FF40043039301A8FEF78DFE08B10D
:10253C00FFF71EFFFEF744FA084BA3FB003080099F
:10254C00FEF766FD0420FEF779FD002211464FF0E0
:10255C00FF30FEF71FFD15B05DF804FBD34D621084
:10256C0080B5FEF721FFFFF7B5FFFFF791FEFFF7F0
:10257C00A7FEFFF7FFFEFFF73BFFFFF753FFFFF749
:10258C00B9FE00213248FEF7B1FCFFF7D1FE032261
:10259C0030493148FFF792F82E4B1A8892B22F4DE2
:1025AC002A8059882E4E31809B88DFF8D490A9F868
:1025BC0000302C4C2C4F2146384600F0B1F8DFF897
:1025CC00C48032882146404600F0AAF8274EB9F85C
:1025DC0000202146304600F0A3F8254C4FF47A73C6
:1025EC00052239462046FFF745FB224F4FF47A73FC
:1025FC00012239462046FFF73DFB4FF47A73052242
:10260C0041462046FFF736FB4FF47A7301223946D8
:10261C002046FFF72FFB4FF47A73052231462046F4
:10262C00FFF728FB4FF47A73022213492046FFF779
:10263C0021FB4FF4FA70FEF7D7FE2A884FF0804347
:10264C005A634FF400510D48FEF7FAFDA4E700BFA2
:10265C006001002050010020A0000020A2010020F9
:10266C009C000020D02F0008100100209C010020AD
:10267C00D0000020080000200400002000100140C1
:10268C005E01002058010020002103E00B4B5B5839
:10269C00435004310A480B4B42189A42F6D30A4A6B
:1026AC0002E0002342F8043B084B9A42F9D3FFF7AF
:1026BC00F7FC00F00FF8FFF753FF70472C300008C1
:1026CC00000000207000002070000020A8010020F5
:1026DC00FEE700000E4B70B51E460E4C0025E41AAA
:1026EC00A410A54204D056F8253098470135F8E7D8
:1026FC0000F086FC084B094C1E46E41AA410002579
:10270C00A54204D056F8253098470135F8E770BD3E
:10271C002430000824300008243000082830000839
:10272C000EB400B54FF402719CB0ADF814106FF0FC
:10273C000041049107914FF6FF711DAB029006907A
:10274C00084853F8042BADF81610006802A9019341
:10275C0000F064F8029B00221A701CB05DF804EBC8
:10276C0003B070476C0000202DE9F0478E6882465C
:10277C009E420C46914698463ED88A8912F4906F38
:10278C003AD02568096902236F1A656905EB45057E
:10279C0095FBF3F57B1C43449D4238BF1D46530506
:1027AC000FD5294600F04AFB064698B13A462169F6
:1027BC0000F0D2FAA38923F4906343F08003A38141
:1027CC0013E02A4600F098FB064670B92169504682
:1027DC0000F0E8FA0C23CAF80030A3894FF0FF3060
:1027EC0043F04003A381BDE8F08726613E44266098
:1027FC0046466561ED1BA560464528BF46464946E1
:10280C003246206800F0B3FAA36800209B1BA3603B
:10281C0023681E442660BDE8F08700002DE9F04FC8
:10282C009DB003938B8980461C060D4616460DD52C
:10283C000B695BB9402100F001FB2860286118B9D5
:10284C000C23C8F80030CDE040236B6100230993C2
:10285C0020238DF82930DFF89CB130238DF82A30F5
:10286C0037463C4614F8013B1BB9B7EB060910D0B0
:10287C0003E0252BF9D02746F3E74B463246294691
:10288C004046FFF771FF013000F0A780099B4B44D5
:10289C0009933B78002B00F0A08000234FF0FF320F
:1028AC0004930793059206938DF853301A930126DF
:1028BC00052221784E4800F041FA671C049B38B180
:1028CC004B4A3C46801A06FA00F018430490EFE796
:1028DC00D90644BF20228DF853201A0744BF2B225F
:1028EC008DF8532022782A2A03D0079A00210A2037
:1028FC000BE0039A111D12680391002A10DA524260
:10290C0043F00200079204900BE027463B78013419
:10291C00303B092B03D800FB02320121F5E701B152
:10292C0007923B782E2B1ED17B782A2B0AD1039B46
:10293C0002371A1D1B680392002BB8BF4FF0FF33F0
:10294C00059310E0002319460593781C0A240746CA
:10295C003A780130303A092A03D804FB01210123CB
:10296C00F5E703B1059103223978224800F0E6F926
:10297C0040B14023CBEB000003FA00F0049B01377D
:10298C0018430490397806221B487E1C8DF82810B9
:10299C0000F0D4F988B1194B33B9039B073323F0FA
:1029AC0007030833039314E003AB00932A46144B3C
:1029BC0004A94046AFF3008007E003AB00932A461E
:1029CC000F4B04A9404600F093F8B0F1FF3F82464C
:1029DC0003D0099B5344099342E7AB895B0601D4AE
:1029EC00099801E04FF0FF301DB0BDE8F08F00BF3B
:1029FC00D82F0008DE2F0008E22F0008000000008E
:102A0C00752700082DE9F04791461F460A698B6827
:102A1C0006469342B8BF1346C9F8003091F84320DC
:102A2C000C46DDF8208012B10133C9F80030236860
:102A3C00990642BFD9F800300233C9F80030256836
:102A4C0015F0060510D104F1190A07E001235246CE
:102A5C0039463046C04701301AD00135E368D9F801
:102A6C0000209B1A9D42F1DB94F84330226800331E
:102A7C0018BF012392060FD5E118302081F84300CE
:102A8C005A1C94F845102244023382F8431003E098
:102A9C004FF0FF30BDE8F08704F143023946304671
:102AAC00C0470130F4D02268D9F80050E36802F036
:102ABC000602042A08BF5D1B2269A3680CBF25EA25
:102ACC00E57500259342C4BF9B1AED184FF0000921
:102ADC001A344D4509D00123224639463046C047A9
:102AEC000130D5D009F10109F3E70020BDE8F087EA
:102AFC002DE9F04317460A7E85B06E2A98460646A5
:102B0C000C460C9B01F1430E00F0AE8011D8632AE9
:102B1C0022D009D8002A00F0BB80582A40F0CA8085
:102B2C0081F84520834955E0642A1ED0692A1CD0BF
:102B3C00C0E0732A00F0B08009D86F2A2ED0702A1A
:102B4C0040F0B8800A6842F020020A603EE0752A24
:102B5C0024D0782A3AD0ADE01A6801F14205111D53
:102B6C001960136884F84230A8E021681A6811F0E3
:102B7C00800F02D0111D196008E011F0400F02F116
:102B8C000401196002D0B2F9003000E01368002B88
:102B9C003CDA2D225B4284F8432037E021681A6826
:102BAC0011F0800F02D0111D196007E011F0400FD9
:102BBC0002F10401196001D0138800E01368227E31
:102BCC005C496F2A14BF0A2208221BE078225A495A
:102BDC0084F845202268186812F0800F00F1040573
:102BEC001D6003D1550601D5038800E00368D007AA
:102BFC0044BF42F0200222601BB9226822F020025E
:102C0C0022601022002084F8430001E049490A2286
:102C1C006568002DA56008DB206820F004002060AA
:102C2C002BB9002D7DD175460CE0002B79D0754663
:102C3C00B3FBF2F002FB1033CB5C05F8013D03460D
:102C4C000028F5D1082A0BD12368DA0708D52369A7
:102C5C0062689A42DEBF302305F8013C05F1FF356E
:102C6C00C5EB0E0323612EE008681A6810F0800F84
:102C7C00496903D0101D1860136808E010F0400F6C
:102C8C0002F104001860136801D0198000E019608B
:102C9C0000232361754616E01A68111D196015682A
:102CAC0000216268284600F049F808B1401B6060BA
:102CBC00636804E004F1420584F842200123236197
:102CCC00002384F84330CDF800803B4603AA21460C
:102CDC003046FFF797FE013002D14FF0FF3026E06F
:102CEC0023692A4639463046C0470130F5D023685F
:102CFC009B0710D5002504F1190907E001234A466A
:102D0C0039463046C0470130E7D00135E368039AB5
:102D1C009B1A9D42F2DBE068039B9842B8BF1846B1
:102D2C0005E00B7804F1420584F842308AE705B0DF
:102D3C00BDE8F083E92F0008FA2F000810B5C9B2DE
:102D4C0002449042034605D01C7801308C42F8D1E5
:102D5C00184610BD002010BD10B5431E0A44914208
:102D6C0004D011F8014B03F8014FF8E710BD88426D
:102D7C0010B501EB020301D8421E0BE09842FBD2C6
:102D8C008118D21AD34204D013F8014D01F8014D29
:102D9C00F8E710BD994204D011F8014B02F8014F2D
:102DAC00F8E710BD38B50546002944D051F8043C6D
:102DBC000C1F002BB8BFE41800F0D4F81E4A13689F
:102DCC00114613B96360146030E0A3420DD9226838
:102DDC00A018834201BF18685B68121822606360F8
:102DEC000C6023E0A24203D813465A68002AF9D19A
:102DFC0018681918A1420BD1216801445818824255
:102E0C00196013D110685268014419605A600DE0C2
:102E1C0002D90C232B6009E021686018824201BFA3
:102E2C00106852680918216062605C602846BDE831
:102E3C00384000F098B838BD9400002070B5CD1C17
:102E4C0025F0030508350C2D38BF0C25002D064642
:102E5C0001DBA94202D90C23336046E000F082F872
:102E6C00234B1C681A462146A1B10B685B1B0ED480
:102E7C000B2B03D90B60CC18CD501EE08C420BBF32
:102E8C0063684B681360636018BF0C4615E00C4612
:102E9C004968E9E7174C23681BB9304600F052F833
:102EAC0020602946304600F04DF8431C18D0C41C55
:102EBC0024F00304A0420DD12560304600F053F8F5
:102ECC0004F10B00231D20F00700C31A0ED05A4248
:102EDC00E25070BD211A304600F034F80130EBD1CD
:102EEC000C233360304600F03EF8002070BD00BF6C
:102EFC009400002090000020F8B5074615460E46B9
:102F0C0021B91146BDE8F840FFF798BF1AB9FFF791
:102F1C0049FF2846F8BD00F027F885420ED929460E
:102F2C003846FFF78BFF044650B131462A46FFF76F
:102F3C0013FF31463846FFF735FF01E03046F8BD48
:102F4C002046F8BD38B5064C0023054608462360DC
:102F5C0000F014F8431C02D1236803B12B6038BD78
:102F6C00A40100207047704751F8040C0028BEBF24
:102F7C00091851F8043CC01804387047044A054934
:102F8C001368002B08BF0B46184410601846704796
:102F9C0098000020A8010020020304050607080978
:102FAC000A0B0C0D0E0F10100102000000000000A7
:102FBC0000000000010203040607080900000000DD
:102FCC00010203042530356400000000232D302B52
:102FDC002000686C4C00656667454647003031320E
:102FEC003334353637383941424344454600303165
:102FFC0032333435363738396162636465660000C4
:10300C00F8B500BFF8BC08BC9E467047F8B500BFC9
:08301C00F8BC08BC9E46704799
:04302400310100086E
:043028000D0100088E
:10302C0000A24A040D0A0000090000000000000084
:10303C000000000000000000000000000000000084
:10304C000000000000000000000000000000000074
:10305C000000000000000000000000000000000064
:10306C000000000000000000000000000000000054
:10307C000000000000000000000000000000000044
:10308C000000000000000000000000000C00002008
:040000050800269534
:00000001FF
