:020000040800F2
:100000000050002079100008690F00086B0F0008ED
:100010006D0F00086F0F0008710F0008000000004E
:10002000000000000000000000000000730F000846
:10003000750F000800000000770F0008790F000816
:10004000C1100008C1100008C1100008C11000084C
:10005000C1100008C1100008C1100008C11000083C
:10006000C1100008C1100008C1100008C11000082C
:10007000C1100008C1100008C1100008C11000081C
:10008000C1100008C1100008C1100008C11000080C
:10009000C1100008C1100008C1100008C1100008FC
:1000A000C1100008C1100008C1100008C1100008EC
:1000B000C1100008C1100008C1100008C1100008DC
:1000C000C1100008C1100008C1100008C1100008CC
:1000D000C1100008C1100008C1100008C1100008BC
:1000E000C1100008C1100008C11000080000000085
:1000F0000000000000000000000000000000000000
:0C01000000000000000000005FF808F1A3
:10010C0010B5054C237833B9044B13B10448AFF345
:10011C0000800123237010BD0C00002000000000A3
:10012C0020110008084B10B51BB108490848AFF363
:10013C0000800848036803B910BD074B002BFBD0A7
:10014C00BDE81040184700BF000000001000002060
:10015C00201100080C0000200000000038B50E4BE8
:10016C00054618784FF47A73B3FBF0F30B4A10681A
:10017C00B0FBF3F000F092F8044658B90F2D09D8F3
:10018C00024629464FF0FF3000F054F8044B20464D
:10019C001D6038BD012038BD04000020080000207F
:1001AC0000000020074A08B51368032043F0100331
:1001BC00136000F02DF80020FFF7D0FF00F0D8FE00
:1001CC00002008BD00200240034A04491368097846
:1001DC000B441360704700BF28000020040000206F
:1001EC00014B1868704700BF2800002038B5044642
:1001FC00FFF7F6FF0546631C1EBF044B1B78E41883
:10020C00FFF7EEFF401B8442FAD838BD04000020F3
:10021C00074A0002D36800F4E06023F4E0631B0497
:10022C001B0C43F0BF6343F400330343D3607047AC
:10023C0000ED00E0174B30B5DB68C3F30223C3F1CC
:10024C0007041D1D042C28BF0424062D4FF00105A6
:10025C0005FA04F404F1FF348CBF033B00230C407B
:10026C009C4005FA03F3013B1A40002842EA0402C1
:10027C004FEA0212A9BF00F16040074BD2B200F561
:10028C006140BBBF00F00F00D2B280F800231A54BB
:10029C0030BD00BF00ED00E014ED00E00138B0F11E
:1002AC00807F0AD2064B074AF021586082F823104F
:1002BC000020072298601A6070470120704700BF29
:1002CC0010E000E000ED00E0036A70B523F00103DC
:1002DC000362036A426884690D6824F07304254341
:1002EC0023F002048B6823430A4CA0420BD1CC6848
:1002FC0023F0080323434E698C6922F44072344383
:10030C0023F00403224342604A688561426303621E
:10031C0070BD00BF002C0140036A30B523F480731C
:10032C000362036A4268C4690D6824F073042C43A9
:10033C008D6823F4007343EA05230C4DA8420ED1BB
:10034C00CD6823F4006343EA05234D6922F440523F
:10035C0042EA05128D6923F4806342EA0512426079
:10036C004A68C461C263036230BD00BF002C014007
:10037C00036A30B523F480530362036A4468C2698C
:10038C000D6822F4E64242EA05228D6823F40053FC
:10039C0043EA0533064DA84202BF4D6924F480445C
:1003AC0044EA85144460C2614A680264036230BD49
:1003BC00002C0140704700001A4A036890420AD092
:1003CC00B0F1804F07D0A2F59432904203D002F5E1
:1003DC008062904215D14A6823F070031343114A8E
:1003EC0090420AD0B0F1804F07D0A2F594329042DF
:1003FC0003D002F58062904203D1CA6823F44073A3
:10040C0013434A6923F08003134303608B68C36270
:10041C000B688362034B984204BF0B69036301238F
:10042C0043617047002C014010B50446A0B190F810
:10043C003D3003F0FF021BB980F83C2000F0BAFD00
:10044C00022384F83D302068211DFFF7B5FF0123FE
:10045C0084F83D30002010BD012010BD10B50446BD
:10046C00A0B190F83D3003F0FF021BB980F83C209E
:10047C00FFF7A0FF022384F83D302068211DFFF711
:10048C009BFF012384F83D30002010BD012010BDDE
:10049C00036A30B523F010030362036A426884696F
:1004AC000D6824F4E64444EA05248D6823F0200307
:1004BC0043EA05130B4DA8420ED1CD6823F08003FF
:1004CC0043EA05134D6922F4406242EA85028D69C4
:1004DC0023F0400342EA850242604A6884618263E9
:1004EC00036230BD002C014038B590F83C30044616
:1004FC00012B0D464FF0020058D0012384F83C30FC
:10050C0084F83D000C2A4BD8DFE802F0074A4A4A2F
:10051C00174A4A4A294A4A4A39002068FFF7D4FE4A
:10052C0023689A6942F008029A619A6922F00402DF
:10053C009A6199692A690A430FE02068FFF7A8FFBE
:10054C00236809699A6942F400629A619A6922F4F3
:10055C0080629A619A6942EA01229A6120E02068DD
:10056C00FFF7DAFE2368DA6942F00802DA61DA6929
:10057C0022F00402DA61D9692A690A430FE0206883
:10058C00FFF7F6FE23680969DA6942F40062DA6162
:10059C00DA6922F48062DA61DA6942EA0122DA610C
:1005AC000123002084F83D3084F83C0038BD10B5A0
:1005BC00846824F47F4421430A4342EA0323836082
:1005CC0010BD90F83C3070B5012B04464FF0020082
:1005DC0000F08D8084F83D002068012384F83C30C5
:1005EC00836823F47F4323F0770383600B68402BED
:1005FC0059D00AD8102B6DD002D8002B6AD070E0DD
:10060C00202B67D0302B65D06BE0602B33D018D803
:10061C00502B66D1036A4D68CE68016A23F00A0339
:10062C0021F00101016282692B4322F0F00242EABF
:10063C00061282610362836823F0700343F0570350
:10064C004EE0702B0CD0B3F5005F4AD1CB684A68F2
:10065C008968FFF7ACFF2268936843F4804308E095
:10066C00CB684A688968FFF7A2FF2268936843F059
:10067C007703936035E04D68CE68016A21F0100174
:10068C0001628269036A22F4704223F0A00343EAF8
:10069C00051342EA063282610362836823F0700319
:1006AC0043F067031CE0036A4D68CE68016A23F0CF
:1006BC000A0321F00101016282692B4322F0F0024E
:1006CC0042EA061282610362836823F0700343F0EE
:1006DC00470305E0826843F0070322F070021343DE
:1006EC0083600123002084F83D3084F83C0070BD09
:1006FC0001F01F0110B50123046A8B4024EA0303A7
:10070C000362036A8A4042EA0301016210BD0000E1
:10071C0010B5044601220068FFF7EAFF2368094A76
:10072C000020934202BF5A6C42F400425A649A6809
:10073C0002F00702062A1EBF1A6842F001021A6074
:10074C0010BD00BF002C014090F83C3030B5012B9F
:10075C004FF0020314D080F83D3003685C689A684F
:10076C0024F070050C682C4322F080054A685C600C
:10077C002A439A60012380F83D30002380F83C30F6
:10078C00184630BD2DE9F3410546002800F0938151
:10079C000368DB0703D42B689F074ED490E0974C7B
:1007AC00636803F00C03042B07D0636803F00C039D
:1007BC00082B09D16368DE0306D523689C03EAD5B0
:1007CC006B68002BE7D176E16B68B3F5803F13D0F3
:1007DC005BB9236823F480332360236823F48023DC
:1007EC002360FFF7FDFC064623E0B3F5A02F23683A
:1007FC0006D143F480232360236843F4803305E05F
:10080C0023F480332360236823F480232360FFF7D1
:10081C00E7FC064623689803BDD4FFF7E1FC801B78
:10082C006428F7D9032047E1FFF7DAFC801B642822
:10083C00F8D823689903F7D4ADE7704C636813F0CC
:10084C000C0F07D0636803F00C03082B11D16368FD
:10085C00DA030ED423689B0703D52B69012B40F0D8
:10086C002A8123686A6923F0F80343EAC2032360F0
:10087C0026E02A69624BB2B101221A60FFF7B0FC84
:10088C00064623685D4A9F0705D4FFF7A9FC801B29
:10089C000228F6D9C6E71368696923F0F80343EA1E
:1008AC00C10313600CE01A60FFF79AFC064623683C
:1008BC00980705D5FFF794FC801B0228F7D9B1E700
:1008CC002B68190703D42B685A072DD492E0AA6918
:1008DC004A4C4C4BDAB101221A60FFF781FC0646F8
:1008EC00636A9B0705D4FFF77BFC801B0228F7D9B2
:1008FC0098E7454B4FF4FA521B68B3FBF2F30193A4
:10090C0000BF019B5A1E0192002BF9D1DBE71A6044
:10091C00FFF766FC0646636A9F07D4D5FFF760FCB9
:10092C00801B0228F7D97DE7344CE369D8000AD440
:10093C00E369012743F08053E361E36903F08053DB
:10094C000093009B00E00027304E3368D90503D597
:10095C00EB68012B11D125E0336843F480733360CD
:10096C00FFF73EFC80463368DA05F1D4FFF738FC1C
:10097C00C8EB00006428F6D954E76BB9236A41F23E
:10098C00883823F001032362236A23F004032362D3
:10099C00FFF726FC064625E0052B236A06D143F01B
:1009AC0004032362236A43F0010305E023F00103EF
:1009BC002362236A23F004032362FFF711FC41F244
:1009CC0088368046236A9B070FD4FFF709FCC8EBD7
:1009DC000000B042F6D925E7FFF702FC801B40452A
:1009EC003FF620AF236A9807F6D41FB1E36923F0D2
:1009FC008053E361E86958B900205DE000100240C3
:100A0C000000424280044242080000200070004076
:100A1C002B4B5A681C4602F00C02082A3CD0294E7B
:100A2C000023022833602BD1FFF7DAFB074622683C
:100A3C00234B910105D5FFF7D3FBC01B0228F6D938
:100A4C00F0E62F6AB7F5803F05D1596821F40030E4
:100A5C00A968014359606A6A63683A4323F47413C2
:100A6C001343636001233360FFF7BAFB0546236829
:100A7C009A01C1D4FFF7B4FB401B0228F7D9D1E689
:100A8C00FFF7AEFB054623689B01B5D5FFF7A8FB26
:100A9C00401B0228F7D9C5E601280DD058682B6AEF
:100AAC0000F480329A4206D16B6A00F47010C01ABE
:100ABC0018BF012000E0012002B0BDE8F08100BFAA
:100ACC000010024060004242184B70B503F1100553
:100ADC002E4686B002AC224618685968083303C209
:100AEC00AB421446F7D133881149ADF804304B684A
:100AFC0003F00C02082A16D1C3F3834206A8024461
:100B0C00DB0312F8100C0BD54A680A4B5843C2F39E
:100B1C00404306AA134413F8143CB0FBF3F003E073
:100B2C00054B584300E0034806B070BD381100086F
:100B3C000010024000127A0000093D002DE9F0413E
:100B4C000D46044610B90120BDE8F081444A1368F3
:100B5C0003F007038B4217D3226890071FD5414B34
:100B6C0012F0040F1EBF596841F4E061596011077F
:100B7C0042BF596841F460515960596821F0F00046
:100B8C00A168014359600AE0136823F007030B4383
:100B9C001360136803F007039942D4D1DCE7D20742
:100BAC0006D42F4A136803F007039D4229D332E081
:100BBC0063682C4E012B326802D112F4003F06E020
:100BCC00022B02D112F0007F01E012F0020FBAD01A
:100BDC00726841F2883822F0030213437360FFF706
:100BEC00FFFA07467368626803F00C03B3EB820FDD
:100BFC00D7D0FFF7F5FAC01B4045F3D90320BDE869
:100C0C00F081136823F007032B431360136803F080
:100C1C0007039D4297D12168124D11F0040F05D0A6
:100C2C006B6823F4E062E36813436B600B0706D533
:100C3C006B68226923F4605343EAC2036B60FFF7CD
:100C4C0043FF6B68084AC3F30313D35CD840074BCC
:100C5C001860074B1868FFF781FA0020BDE8F08197
:100C6C0000200240001002404A1100080800002039
:100C7C00000000202DE9F04F00242646DFF8A0E10B
:100C8C00634BDFF8A0C1DFF8A08185B00D6835FAA1
:100C9C0006F200F0BA800122B24032EA050540F0BB
:100CAC00B2804D68122D27D00ED8022D21D004D839
:100CBC002DB3012D2CD1CC682AE0032D17D0112D8A
:100CCC0026D1CC68043423E0524FBD4217D006D84D
:100CDC00A7F58017BD4212D007F5803704E06545B3
:100CEC000DD045450BD04C4FBD4211D107E000242F
:100CFC000EE0CC6808340BE0CC680C3408E08C684F
:100D0C002CB1012C0CBF02614261082400E00424C8
:100D1C00FF2A96BF076847688346B9468ABFA6F183
:100D2C000805B500AD004FF00F0707FA05FA29EAE0
:100D3C000A0904FA05F588BF00F1040B49EA050518
:100D4C00CBF80050D1F8049019F0805F5BD0DEF83E
:100D5C00185006F0030A45F00105CEF81850DEF8DD
:100D6C0018504FEA8A0A05F001050395039D26F0F9
:100D7C00030505F1804505F58035D5F808B007FA6F
:100D8C000AF72BEA07070197244FB84210D007F552
:100D9C008067B8420FD007F58067B8420ED007F5D0
:100DAC008067B8420CBF4FF0030B4FF0040B07E009
:100DBC004FF0000B04E04FF0010B01E04FF0020B81
:100DCC00019F0BFA0AFA4AEA0707AF601D6819F48B
:100DDC00803F14BF154395431D605D6819F4003FB7
:100DEC0014BF154395435D609D6819F4801F14BFB3
:100DFC00154395439D60DD6819F4001F14BF2A4309
:100E0C0025EA0202DA60013640E705B0BDE8F08F52
:100E1C0000040140000021100000221000080140D5
:100E2C0000100240000031100000321010B590B0DC
:100E3C002822002106A800F065F90021142201A83F
:100E4C0000F060F94FF480330122022407930E93D3
:100E5C0006A84FF4E01306920A920F930D94FFF735
:100E6C0091FC0F2301934FF480620023214601A8CB
:100E7C000294039304920593FFF760FE10B010BD2B
:100E8C00F0B591B0FFF78EF9FFF7D0FF314B00248E
:100E9C009A69002142F020029A619A6905A802F031
:100EAC0020020192019A9A692B4D42F004029A6138
:100EBC009B69102203F004030293029B00F022F9B9
:100ECC001C22214609A80394049400F01BF94FF648
:100EDC00FF734FF08046EB6028468023AB612E6099
:100EEC006C60AC602C61FFF79FFA4FF4805305A93E
:100EFC0028460593FFF765FB2846FFF7AFFA03A9D1
:100F0C00284603940494FFF71FFC6023224609A98A
:100F1C000993284604230D930A940B94FFF7E4FAE3
:100F2C00284600F059F828462146FFF7F1FB4FF60A
:100F3C00FE773546BC4205DC6C6301204634FFF776
:100F4C0055F9F7E76C630120463CFFF74FF9002C8D
:100F5C00F8DCEFE7001002402C0000207047FEE7A1
:100F6C00FEE7FEE7FEE7704770477047FFF72CB9C6
:100F7C000E4B82B09A6942F001029A619A6902F0B2
:100F8C0001020092009ADA6942F08052DA61DB6960
:100F9C00074A03F080530193019B536823F0E063ED
:100FAC0043F08063536002B0704700BF00100240F2
:100FBC0000000140036882B0B3F1804F0AD103F501
:100FCC000433DA6942F00102DA61DB6903F00103F0
:100FDC000193019B02B0704710B5044686B01022F5
:100FEC00002102A800F08EF82368B3F1804F13D1D2
:100FFC0003F504339A6902A942F004029A619B69D1
:10100C00064803F004030193019B0123029302237E
:10101C0003930593FFF72EFE06B010BD00080140A8
:10102C000F4B1A6842F001021A6059680D4A0A40C7
:10103C005A601A6822F0847222F480321A601A689C
:10104C0022F480221A605A6822F4FE025A604FF48D
:10105C001F029A60044B4FF000629A60704700BF09
:10106C00001002400000FFF800ED00E0002103E05A
:10107C000B4B5B58435004310A480B4B42189A42B5
:10108C00F6D30A4A02E0002342F8043B084B9A428A
:10109C00F9D3FFF7C5FF00F00FF8FFF7F1FE70472B
:1010AC0064110008000000200C0000200C0000203F
:1010BC006C000020FEE700000E4B70B51E460E4C77
:1010CC000025E41AA410A54204D056F82530984700
:1010DC000135F8E700F01EF8084B094C1E46E41ADF
:1010EC00A4100025A54204D056F8253098470135A8
:1010FC00F8E770BD5C1100085C1100085C11000879
:10110C006011000803460244934202D003F8011B0D
:10111C00FAE77047F8B500BFF8BC08BC9E467047AC
:0C112C00F8B500BFF8BC08BC9E46704738
:1011380002030405060708090A0B0C0D0E0F101010
:10114800010200000000000000000102030406077D
:041158000809000082
:04115C003101000855
:041160000D01000875
:0C11640010000000010000000024F40056
:040000050800107966
:00000001FF
