:020000040800F2
:1000000000500020491200089112000891120008C7
:1000100091120008911200089112000800000000DF
:100020000000000000000000000000009112000825
:100030009112000800000000911200081D10000835
:100040009112000891120008911200089112000804
:1000500091120008911200089112000891120008F4
:1000600091120008911200089112000891120008E4
:1000700091120008911200089112000891120008D4
:1000800091120008911200089112000891120008C4
:1000900091120008911200089112000891120008B4
:1000A0009112000821120008911200089112000814
:1000B0009112000891120008911200089112000894
:1000C0009112000891120008911200089112000884
:1000D0009112000891120008911200089112000874
:1000E000911200089112000891120008000000000F
:1000F0000000000000000000000000000000000000
:0C01000000000000000000005FF808F1A3
:10010C0010B5054C237833B9044B13B10448AFF345
:10011C0000800123237010BD680000200000000047
:10012C0044220008084B10B51BB108490848AFF32E
:10013C0000800848036803B910BD074B002BFBD0A7
:10014C00BDE81040184700BF000000006C00002004
:10015C004422000868000020000000000F4B1A68C1
:10016C0042F001021A6059680D4A0A405A601A6836
:10017C0022F0847222F480321A601A6822F48022EF
:10018C001A605A6822F4FE025A604FF41F029A60F9
:10019C00044B4FF000629A60704700BF00100240A1
:1001AC000000FFF800ED00E07047000010B50446B9
:1001BC00074B18684FF47A73B0FBF3F000F08CF82F
:1001CC00002221464FF0FF3000F046F8002010BD11
:1001DC0000000020074A08B51368032043F0100301
:1001EC00136000F027F80020FFF7E0FFFFF7DCFFBB
:1001FC00002008BD00200240024A1368013313603E
:10020C00704700BF90000020014B1868704700BF7A
:10021C009000002037B50190FFF7F6FF0546019CD2
:10022C00631C18BF0134FFF7EFFF401BA042FAD349
:10023C0003B030BD074A0002D36800F4E06023F439
:10024C00E0631B041B0C43F0BF6343F40033034314
:10025C00D360704700ED00E0174B30B5DB68C3F39B
:10026C000223C3F107041D1D042C28BF0424062DF2
:10027C004FF0010505FA04F404F1FF348CBF033B85
:10028C0000230C409C4005FA03F3013B1A40002864
:10029C0042EA04024FEA0212AFBF00F16040074B82
:1002AC0000F00F00D2B2A5BFD2B200F561401A54D3
:1002BC0080F8002330BD00BF00ED00E014ED00E03D
:1002CC004209012300F01F0003FA00F0014B43F830
:1002DC002200704700E100E00138B0F1807F0AD2C3
:1002EC00064B074AF021586082F8231000200722A1
:1002FC0098601A6070470120704700BF10E000E062
:10030C0000ED00E0044B04281A680CBF42F0040214
:10031C0022F004021A60704710E000E0036A70B526
:10032C0023F001030362036A426884690D6824F0B8
:10033C007304254323F002048B6823430A4CA04228
:10034C000BD1CC6823F0080323434E698C6922F44B
:10035C004072344323F00403224342604A688561AF
:10036C004263036270BD00BF002C0140036A30B5CC
:10037C0023F480730362036A4268C4690D6824F035
:10038C0073042C438D6823F4007343EA05230C4D4E
:10039C00A8420ED1CD6823F4006343EA05234D69CE
:1003AC0022F4405242EA05128D6923F4806342EA3A
:1003BC00051242604A68C461C263036230BD00BF6B
:1003CC00002C0140036A30B523F480530362036AA6
:1003DC004468C2690D6822F4E64242EA05228D683F
:1003EC0023F4005343EA0533064DA84202BF4D697E
:1003FC0024F4804444EA85144460C2614A6802646F
:10040C00036230BD002C0140704703680020DA689D
:10041C0042F00102DA601A6842F001021A60704779
:10042C00704770477047704770477047036810B546
:10043C001A690446910714D5DA68920711D56FF042
:10044C0002021A619B6901229B07027702D0FFF717
:10045C00EAFF04E0FFF7E6FF2046FFF7E5FF002385
:10046C00237723681A69500716D5DA68510713D514
:10047C006FF004021A619B69022213F4407F227709
:10048C00204602D0FFF7CFFF04E0FFF7CBFF20465A
:10049C00FFF7CAFF0023237723681A69120715D5C3
:1004AC00DA68100712D56FF008021A61DB690422B2
:1004BC0099072277204602D0FFF7B5FF04E0FFF73B
:1004CC00B1FF2046FFF7B0FF0023237723681A699A
:1004DC00D20616D5DA68D00613D56FF010021A6161
:1004EC00DB69082213F4407F2277204602D0FFF705
:1004FC009AFF04E0FFF796FF2046FFF795FF0023D5
:10050C00237723681A69D10708D5DA68D20705D58D
:10051C006FF001021A612046FFF783FF23681A6906
:10052C00100608D5DA68110605D56FF080021A613D
:10053C00204600F0A2F923681A69520608D5DA6839
:10054C00500605D56FF040021A612046FFF76DFF8B
:10055C0023681A6991060AD5DA68920607D56FF0F6
:10056C0020022046BDE810401A6100F085B910BD8C
:10057C001A4A036890420AD0B0F1804F07D0A2F516
:10058C009432904203D002F58062904215D14A68B1
:10059C0023F070031343114A90420AD0B0F1804FFC
:1005AC0007D0A2F59432904203D002F580629042BB
:1005BC0003D1CA6823F4407313434A6923F08003C0
:1005CC00134303608B68C3620B688362034B9842CE
:1005DC0004BF0B690363012343617047002C014086
:1005EC0010B50446A0B190F83D3003F0FF021BB9E2
:1005FC0080F83C20FFF708FF022384F83D30206888
:10060C00211DFFF7B5FF012384F83D30002010BDFC
:10061C00012010BD10B50446A0B190F83D3003F098
:10062C00FF021BB980F83C20FFF7FAFE022384F886
:10063C003D302068211DFFF79BFF012384F83D30DE
:10064C00002010BD012010BD036A30B523F010034B
:10065C000362036A426884690D6824F4E64444EA40
:10066C0005248D6823F0200343EA05130B4DA842A3
:10067C000ED1CD6823F0800343EA05134D6922F4B3
:10068C00406242EA85028D6923F0400342EA85020A
:10069C0042604A6884618263036230BD002C014071
:1006AC0038B590F83C300446012B0D464FF0020053
:1006BC0058D0012384F83C3084F83D000C2A4BD8E8
:1006CC00DFE802F0074A4A4A174A4A4A294A4A4A84
:1006DC0039002068FFF722FE23689A6942F008026D
:1006EC009A619A6922F004029A6199692A690A430B
:1006FC000FE02068FFF7A8FF236809699A6942F4A4
:10070C0000629A619A6922F480629A619A6942EA5B
:10071C0001229A6120E02068FFF728FE2368DA693D
:10072C0042F00802DA61DA6922F00402DA61D9696E
:10073C002A690A430FE02068FFF744FE2368096921
:10074C00DA6942F40062DA61DA6922F48062DA6111
:10075C00DA6942EA0122DA610123002084F83D3093
:10076C0084F83C0038BD10B50123046A8B4024EAA0
:10077C0003030362036A8A4042EA0301016210BD6B
:10078C0010B5044601220068FFF7EDFF2368064A06
:10079C000020934202BF5A6C42F400425A641A6819
:1007AC0042F001021A6010BD002C014010B5042368
:1007BC00046A8B4024EA03030362036A8A4042EA18
:1007CC000301016210BD10B5044604220068FFF756
:1007DC00EDFF236800205A6C42F400425A641A68F8
:1007EC0042F001021A6010BD90F83C30012B1FD072
:1007FC00CB6823F440728B68134323F480624B68FC
:10080C00134323F400620B68134323F480520B69E7
:10081C00134323F400524B6913438A6923F4404376
:10082C00134302685364002380F83C301846704729
:10083C000220704790F83C3010B5012B4FF00203AA
:10084C0018D080F83D3003685A6822F070025A6064
:10085C005C680A6822435A609A6822F080029A60A7
:10086C009C684A6822439A60012380F83D3000233B
:10087C0080F83C30184610BD7047704703682DE96E
:10088C00F341DB07054603D42B689F074FD490E058
:10089C00974C636803F00C03042B07D0636803F0D8
:1008AC000C03082B0AD16368DE0307D523689C036D
:1008BC00EAD56B68002BE7D1012067E16B68B3F5D3
:1008CC00803F13D05BB9236823F480332360236803
:1008DC0023F480232360FFF797FC064623E0B3F54F
:1008EC00A02F236806D143F480232360236843F4AC
:1008FC00803305E023F480332360236823F48023C2
:10090C002360FFF781FC064623689803BCD4FFF7ED
:10091C007BFC801B6428F7D9032037E1FFF774FCBC
:10092C00801B6428F8D823689903F7D4ACE7704C83
:10093C00636813F00C0F07D0636803F00C03082BEB
:10094C0010D16368DA030DD423689B0702D52B6999
:10095C00012BB1D123686A6923F0F80343EAC2037F
:10096C00236026E02A69634BB2B101221A60FFF7BB
:10097C004BFC064623685E4A9F0705D4FFF744FCF0
:10098C00801B0228F6D9C7E71368696923F0F803BE
:10099C0043EAC10313600CE01A60FFF735FC06460E
:1009AC002368980705D5FFF72FFC801B0228F7D981
:1009BC00B2E72B68190703D42B685A072DD492E0A1
:1009CC00AA694B4C4C4BDAB101221A60FFF71CFCA4
:1009DC000646636A9B0705D4FFF716FC801B0228AA
:1009EC00F7D999E7454B4FF4FA521B68B3FBF2F376
:1009FC00019300BF019B5A1E0192002BF9D1DBE73A
:100A0C001A60FFF701FC0646636A9F07D4D5FFF70F
:100A1C00FBFB801B0228F7D97EE7354CE369D80035
:100A2C000AD4E369012743F08053E361E36903F0DF
:100A3C0080530093009B00E00027314E3368D905AA
:100A4C0003D5EB68012B11D125E0336843F4807397
:100A5C003360FFF7D9FB80463368DA05F1D4FFF732
:100A6C00D3FBC8EB00006428F6D955E76BB9236AB1
:100A7C0041F2883823F001032362236A23F0040334
:100A8C002362FFF7C1FB064625E0052B236A06D13E
:100A9C0043F004032362236A43F0010305E023F0CF
:100AAC0001032362236A23F004032362FFF7ACFBE8
:100ABC0041F288368046236A9B070FD4FFF7A4FBCC
:100ACC00C8EB0000B042F6D926E7FFF79DFB801B70
:100ADC0040453FF621AF236A9807F6D41FB1E3696E
:100AEC0023F08053E361EA6962B900204EE000BF55
:100AFC0000100240000042428004424200000020EC
:100B0C0000700040234C636803F00C03082B3FF487
:100B1C00D3AE214E0023022A33602BD1FFF774FB96
:100B2C00074622681B4B910105D5FFF76DFBC01BD7
:100B3C000228F6D9F0E62F6AB7F5803F05D159683F
:100B4C0021F40030A968014359606A6A63683A432A
:100B5C0023F474131343636001233360FFF754FBD6
:100B6C00054623689A01C0D4FFF74EFB401B0228B0
:100B7C00F7D9D1E6FFF748FB054623689B01B4D5AE
:100B8C00FFF742FB401B0228F7D9C5E602B0BDE8CF
:100B9C00F08100BF0010024060004242184B70B55B
:100BAC0003F110052E4686B002AC2246186859682F
:100BBC00083303C2AB421446F7D133881149ADF860
:100BCC0004304A6802F00C03082B16D1C2F383439D
:100BDC0006A8D20341BF4A680146C2F340425218EC
:100BEC00034444BF12F8140C074A13F8103C4CBFD2
:100BFC00B2FBF0F00548584300E0034806B070BD66
:100C0C00802100080010024000127A0000093D000B
:100C1C004C4A2DE9F0411368054603F007038B425B
:100C2C000E460AD32968880714D54748436823F031
:100C3C00F002AB68134343600CE0136823F0070326
:100C4C000B431360136803F007039942EAD00120A9
:100C5C00BDE8F081CA0706D43A4A136803F00703CB
:100C6C009E4241D34AE06B68374C012B226802D17B
:100C7C0012F4003F06E0022B02D112F0007F01E0DB
:100C8C0012F0020FE3D0626841F2883822F00302BE
:100C9C0013436360FFF7B8FA6B680746012B0CD15E
:100CAC00636803F00C03042BD6D0FFF7ADFAC01B1E
:100CBC004045F5D90320BDE8F081022B0FD16368C4
:100CCC0003F00C03082BC7D0FFF79EFAC01B40455E
:100CDC00F5D9EFE7FFF798FAC01B4045EAD86368EF
:100CEC0013F00C0FF6D1B7E7136823F00703334367
:100CFC001360136803F007039E42A8D12968124CB5
:100D0C0011F0040F05D0636823F4E062EB68134321
:100D1C0063600B0706D563682A6923F4605343EAC2
:100D2C00C2036360FFF73AFF6368084AC3F3031317
:100D3C00D35CD840064B18600020FFF737FA002030
:100D4C00BDE8F08100200240001002409221000812
:100D5C0000000020014B1868704700BF0000002005
:100D6C0003682DE9F341D907054656D5374CE3699D
:100D7C00DA000AD4E369012743F08053E361E369A5
:100D8C0003F080530193019B00E00027304E336841
:100D9C00DB0505D5236A2D4913F4407312D116E0F7
:100DAC00336843F480733360FFF72EFA8046336860
:100DBC00D805EFD4FFF728FAC8EB00006428F6D961
:100DCC0003203FE06A6802F4407293420CD1236A1C
:100DDC001E4923F440726B6813432362EFB1CB6955
:100DEC0023F08053CB6118E00B6A1A4A0126166077
:100DFC0023F44070002616600862D907E7D5FFF788
:100E0C0003FA41F288380646236A9A07DFD4FFF7C3
:100E1C00FBF9801B4045F7D9D2E72868830706D534
:100E2C000A494B6823F44042AB6813434B6010F003
:100E3C00100007D0054900204B6823F48002EB68B2
:100E4C0013434B6002B0BDE8F08100BF00100240BC
:100E5C0000700040400442422DE9F74F0024264622
:100E6C00624BDFF894E1DFF894C101220D68B240C7
:100E7C0032EA050540F0B3804D68122D28D00ED80B
:100E8C00022D22D004D835B3012D2DD1CC682BE006
:100E9C00032D18D0112D27D1CC68043424E0544FE5
:100EAC00BD4218D006D8DFF85881454513D008F557
:100EBC00803805E075450ED065450CD0DFF84481CF
:100ECC00454511D107E000240EE0CC6808340BE056
:100EDC00CC680C3408E08C682CB1012C0CBF02617E
:100EEC004261082400E00424FF2A97BF8346A6F140
:100EFC000805D0F80090B50084BFD0F80490AD0080
:100F0C004FF00F0808FA05FA29EA0A0904FA05F560
:100F1C0088BF00F1040B49EA0505CBF80050D1F865
:100F2C00049019F0805F5AD0324D324FAD6906F003
:100F3C00030A45F00105BD61BD694FEA8A0A05F057
:100F4C0001050195019D26F0030505F1804505F588
:100F5C008035D5F808B0A7F5843708FA0AF8B842F6
:100F6C002BEA080810D007F58067B8420FD007F5B8
:100F7C008067B8420ED007F58067B8420CBF4FF0BF
:100F8C00030B4FF0040B07E04FF0000B04E04FF0A5
:100F9C00010B01E04FF0020B0BFA0AFA4AEA080ABD
:100FAC00C5F808A01D6819F4803F14BF154395437C
:100FBC001D605D6819F4003F14BF154395435D60D7
:100FCC009D6819F4801F14BF154395439D60DD681F
:100FDC0019F4001F14BF2A4325EA0202DA60013615
:100FEC00102E7FF442AF03B0BDE8F08F0004014037
:100FFC0000002110001002400000311000003210DF
:10100C000000111000002210C3685940C1607047E5
:10101C00FFF7F2B830B5012395B00E9310230224DC
:10102C0000250F930AA84FF4601313930A9411949C
:10103C001295FFF723FC0F232146059305A84FF4C7
:10104C0080630893069407950995FFF7E1FD4FF42B
:10105C00404301A803930194FFF782FEFFF77AFE49
:10106C004FF47A73B0FBF3F0FFF736F90420FFF777
:10107C0049F92A4629464FF0FF30FFF7EDF815B035
:10108C0030BD00001C4B30B59A6989B042F00402A7
:10109C009A619A6908AC02F004020192019A9A6969
:1010AC004FF4005542F008029A619A69134802F015
:1010BC0008020292029A9A6942F010029A619B69A4
:1010CC0044F8105D03F010030393039B21460123A6
:1010DC000593FFF7C1FE0223059321464FF480735D
:1010EC0007480493FFF7B8FE214606480495FFF71E
:1010FC00B3FE09B030BD00BF00100240001001402B
:10110C0000080140000C0140324B10B59A6992B0B6
:10111C0042F400629A619B692F4C03F400630193C3
:10112C00019B2E4B202223604FF4FA63E360204690
:10113C000023636063612361A260A361FFF750FA2F
:10114C00012845D02046FFF765FA012802D1244832
:10115C0000F0C8F80024102302A91F48029303943E
:10116C00FFF768FB6023049364230593082322464E
:10117C00079304A94FF4007317480A930694089434
:10118C000994FFF78DFA4FF400630B934FF48063CF
:10119C000C9330230E930BA94FF480430E481193FC
:1011AC000D940F941094FFF71FFB21460A48FFF78C
:1011BC00E7FA21460848FFF706FB2246214619208C
:1011CC00FFF74AF81920FFF77BF80348FFF71DF9E2
:1011DC0012B010BD0010024094000020002C014001
:1011EC00A221000808B5FEF7F5FFFFF713FFFFF784
:1011FC0049FFFFF789FF0020FEF7D8FF6420FFF7B7
:10120C0009F84FF400510248FFF7FEFEF6E700BF65
:10121C000010014010B5074C2046FFF707F94FF4BA
:10122C0000510548FFF7F0FE23686FF001021A61C8
:10123C0010BD00BF9400002000100140002103E00D
:10124C000B4B5B58435004310A480B4B42189A42E3
:10125C00F6D30A4A02E0002342F8043B084B9A42B8
:10126C00F9D3FEF77BFF00F00FF8FFF7BBFF7047D9
:10127C0064220008000000206800002068000020A4
:10128C00D8000020FEE700000E4B70B51E460E4C39
:10129C000025E41AA410A54204D056F8253098472E
:1012AC000135F8E700F0C8FF084B094C1E46E41A5C
:1012BC00A4100025A54204D056F8253098470135D6
:1012CC00F8E770BD5C2200085C2200085C22000874
:1012DC006022000803460244934202D003F8011B2B
:1012EC00FAE770470FB40A4B13B51C6824B1A36915
:1012FC0013B9204600F04EF805AB049AA1682046BD
:10130C00019300F057F902B0BDE8104004B07047EB
:10131C0064000020014900F0A9B800BFAD1E000810
:10132C0010B50446002303604360836081814366EB
:10133C00C281036143618361194608225C30FFF767
:10134C00C9FF054B24626362044BA362044BE36246
:10135C00044B236310BD00BF511B0008731B000816
:10136C00AB1B0008CF1B000870B568234D1E5D43F6
:10137C000E4605F1740100F097F8044640B10021C7
:10138C0080E842000C30A06005F16802FFF7A2FF74
:10139C00204670BD836910B5044633BB8364C364B7
:1013AC000365124B124A1B688262984204BF0123E8
:1013BC00836100F01FF86060204600F01BF8A0600D
:1013CC00204600F017F80022E06004216068FFF767
:1013DC00A7FF01220921A068FFF7A2FF0222122118
:1013EC00E068FFF79DFF0123A36110BDAC2100084D
:1013FC0021130008F8B51C4B07461E68B36913B9D6
:10140C003046FFF7C7FF4836B4687368013B04D415
:10141C00B4F90C507DB16834F8E733680BB1366819
:10142C00F2E704213846FFF79FFF30600028F6D121
:10143C000C233B60F8BD4FF6FF73E3810123A381BE
:10144C0065662560A560656025616561A5610822FA
:10145C00294604F15C00FFF73DFF6563A563A564B5
:10146C00E5642046F8BD00BFAC2100082DE9F84327
:10147C008046894600F14804002694B1A568676847
:10148C00013F0CD4AB89012B07D9B5F90E300133D0
:10149C0003D029464046C84706436835F0E7246820
:1014AC00EBE73046BDE8F88370B5CD1C25F003059D
:1014BC0008350C2D38BF0C25002D064601DBA94242
:1014CC0002D90C23336046E000F094FD234B1C68DA
:1014DC001A462146A1B10B685B1B0ED40B2B03D90A
:1014EC000B60CC18CD501EE08C420BBF63684B6870
:1014FC001360636018BF0C4615E00C464968E9E7B9
:10150C00174C23681BB9304600F00CFB20602946B1
:10151C00304600F007FB431C18D0C41C24F0030415
:10152C00A0420DD12560304600F065FD04F10B00A2
:10153C00231D20F00700C31A0ED05A42E25070BD92
:10154C00211A304600F0EEFA0130EBD10C23336057
:10155C00304600F050FD002070BD00BF8800002018
:10156C0084000020936810B4013B002B936008DAD0
:10157C009469A34202DBCBB20A2B02D110BC00F05F
:10158C0025BB1368581C10601970C8B210BC70478A
:10159C00F8B506460F461446D518AC4208D03A4664
:1015AC0014F8011B3046FFF7DDFF431CF5D100E0BA
:1015BC000020F8BD2DE9F04F9DB00C461746039363
:1015CC00064618B183690BB9FFF7E4FE7F4B9C42CA
:1015DC0001D1746808E07E4B9C4201D1B46803E0F1
:1015EC007C4B9C4208BFF468A38918070CD523696F
:1015FC0053B10023099320238DF8293030238DF823
:10160C002A30DFF8D4B144E02146304600F044FBE8
:10161C000028EED04FF0FF30D5E0039A111D126870
:10162C000391002A80F28C80524243F00200079210
:10163C00049098F800302E2B00F08480032298F848
:10164C000010654800F0C8FC48B14023CBEB00000B
:10165C0003FA00F0049B08F101081843049098F871
:10166C00001006225D4808F101078DF8281000F0E3
:10167C00B3FC002800F09580594B002B40F088807B
:10168C00039B073323F0070308330393099B53444D
:10169C000993B846454615F8013B1BB9B8EB070949
:1016AC000FD003E0252BF9D0A846F3E74B463A467A
:1016BC0021463046FFF76CFF01307FD0099B4B442D
:1016CC00099398F80030002B78D000234FF0FF32AC
:1016DC0004930793059206938DF853301A930127C0
:1016EC00052229783F4800F077FC05F10108049B9E
:1016FC0038B13C4A4546801A07FA00F0184304906A
:10170C00EEE7D90644BF20228DF853201A0744BFB8
:10171C002B228DF853202A782A2A3FF47EAF079A81
:10172C0000210A20A84698F800300135303B092BDF
:10173C0003D800FB02320121F4E700293FF479AF12
:10174C00079276E798F801302A2B0BD1039B08F10E
:10175C0002081A1D1B680392002BB8BF4FF0FF3311
:10176C0005936BE700231946059308F101000A2540
:10177C00804698F800200130303A092A03D805FB3E
:10178C0001210123F4E7002B3FF458AF059155E7F5
:10179C0003AB00932246144B04A93046AFF30080F0
:1017AC0007E003AB009322460F4B04A9304600F030
:1017BC0093F8B0F1FF3F82467FF468AFA3895B06D4
:1017CC003FF528AF09981DB0BDE8F08FB021000897
:1017DC00D0210008F0210008162200081A22000867
:1017EC0000000000102200089D1500082DE9F047AC
:1017FC0091461F460A698B6806469342B8BF13464A
:10180C00C9F8003091F843200C46DDF8208012B165
:10181C000133C9F800302368990642BFD9F800306B
:10182C000233C9F80030256815F0060510D104F113
:10183C00190A07E00123524639463046C0470130A9
:10184C001AD00135E368D9F800209B1A9D42F1DBD0
:10185C0094F843302268003318BF012392060FD549
:10186C00E118302081F843005A1C94F845102244AA
:10187C00023382F8431003E04FF0FF30BDE8F087ED
:10188C0004F1430239463046C0470130F4D0226897
:10189C00D9F80050E36802F00602042A08BF5D1B69
:1018AC002269A3680CBF25EAE57500259342C4BFE5
:1018BC009B1AED184FF000091A344D4509D001233D
:1018CC00224639463046C0470130D5D009F10109CE
:1018DC00F3E70020BDE8F0872DE9F04317460A7EB8
:1018EC0085B06E2A984606460C460C9B01F1430EB9
:1018FC0000F0AE8011D8632A22D009D8002A00F05B
:10190C00BB80582A40F0CA8081F84520834955E0B5
:10191C00642A1ED0692A1CD0C0E0732A00F0B08063
:10192C0009D86F2A2ED0702A40F0B8800A6842F08D
:10193C0020020A603EE0752A24D0782A3AD0ADE025
:10194C001A6801F14205111D1960136884F84230C0
:10195C00A8E021681A6811F0800F02D0111D1960DF
:10196C0008E011F0400F02F10401196002D0B2F945
:10197C00003000E01368002B3CDA2D225B4284F827
:10198C00432037E021681A6811F0800F02D0111D36
:10199C00196007E011F0400F02F10401196001D049
:1019AC00138800E01368227E5C496F2A14BF0A2258
:1019BC0008221BE078225A4984F8452022681868CE
:1019CC0012F0800F00F104051D6003D1550601D5FE
:1019DC00038800E00368D00744BF42F02002226075
:1019EC001BB9226822F0200222601022002084F809
:1019FC00430001E049490A226568002DA56008DB17
:101A0C00206820F0040020602BB9002D7DD1754694
:101A1C000CE0002B79D07546B3FBF2F002FB1033CF
:101A2C00CB5C05F8013D03460028F5D1082A0BD103
:101A3C002368DA0708D5236962689A42DEBF30232F
:101A4C0005F8013C05F1FF35C5EB0E0323612EE0D3
:101A5C0008681A6810F0800F496903D0101D1860CF
:101A6C00136808E010F0400F02F1040018601368CE
:101A7C0001D0198000E0196000232361754616E03F
:101A8C001A68111D1960156800216268284600F05B
:101A9C00A3FA08B1401B6060636804E004F14205DE
:101AAC0084F8422001232361002384F84330CDF8CD
:101ABC0000803B4603AA21463046FFF797FE0130D3
:101ACC0002D14FF0FF3026E023692A4639463046D2
:101ADC00C0470130F5D023689B0710D5002504F1D1
:101AEC00190907E001234A4639463046C047013000
:101AFC00E7D00135E368039A9B1A9D42F2DBE0685C
:101B0C00039B9842B8BF184605E00B7804F14205D8
:101B1C0084F842308AE705B0BDE8F0832122000842
:101B2C003222000838B5064C0023054608462360CF
:101B3C0000F00AFB431C02D1236803B12B6038BDB3
:101B4C00D400002010B50C46B1F90E1000F0A0FA2C
:101B5C000028ABBF636DA3891B1823F48053ACBF63
:101B6C006365A38110BD2DE9F0411F468B890546A5
:101B7C00DB050C46164605D502230022B1F90E10E2
:101B8C0000F0B8F9A389324623F48053A381B4F949
:101B9C000E103B462846BDE8F04100F06BB810B57E
:101BAC000C46B1F90E1000F0A5F9431CA38915BF22
:101BBC00606523F4805343F48053A38118BFA38141
:101BCC0010BDB1F90E1000F0D5B80000F8B50F46F5
:101BDC001446054618B183690BB9FFF7DBFB224BA2
:101BEC009C4201D16C6808E0204B9C4201D1AC684E
:101BFC0003E01F4B9C4208BFEC68A369A360A38958
:101C0C001A0709D523693BB123682069FEB2181A5B
:101C1C00636998420FDB08E02146284600F03CF847
:101C2C000028F1D04FF0FF361BE02146284600F08B
:101C3C0037F90028F6D1A3680130013BA360236873
:101C4C005A1C22601F706369984204D0A389DB0779
:101C5C0007D50A2E05D12146284600F021F9002887
:101C6C00E0D13046F8BD00BFB0210008D0210008FB
:101C7C00F021000838B5074C0546084611460022ED
:101C8C0022601A4600F06EFA431C02D1236803B19D
:101C9C002B6038BDD4000020324B70B51D68064651
:101CAC000C4625B1AB6913B92846FFF773FB2E4BD5
:101CBC009C4201D16C6808E02C4B9C4201D1AC6871
:101CCC0003E02B4B9C4208BFEC68B4F90C309AB281
:101CDC0015071DD4D00602D4092232603AE0510710
:101CEC0012D5616B41B104F14403994202D03046E4
:101CFC0000F082F900236363A38923F02403A381FA
:101D0C000023636023692360A38943F00803A38144
:101D1C0023694BB9A38903F42073B3F5007F03D077
:101D2C002146304600F01CF9A28912F0010305D0BF
:101D3C000023A36063695B42A36103E0920758BF71
:101D4C006369A36023695BB9B4F90C3003F08000BC
:101D5C0080B230B143F04003A3814FF0FF3070BD2F
:101D6C00002070BD64000020B0210008D0210008C4
:101D7C00F021000838B5064C0023054608462360C0
:101D8C0000F0BAF9431C02D1236803B12B6038BDB3
:101D9C00D40000208A892DE9F041054610070C4635
:101DAC0059D44B68002B02DC0B6C002B17DDE66A58
:101DBC00AEB102F48052002392B22F682B600AB1AC
:101DCC00606D15E0216A01232846B047411C0FD1F4
:101DDC002B686BB11D2B01D0162B03D12F6000206B
:101DEC00BDE8F081A38943F04003A381BDE8F081F5
:101DFC00A3895A0705D56368C01A636B0BB1236CB2
:101E0C00C01A00230246E66A216A2846B047431CE2
:101E1C00A38906D129681D2939D8204ACA40D6077A
:101E2C0035D5002262602269D904226004D5421C97
:101E3C0001D12B6803B96065616B2F600029CED08E
:101E4C0004F14403994202D0284600F0D5F8002052
:101E5C006063BDE8F0810F69002FC0D093070E6856
:101E6C000CBF4B690023C7EB06080F608B6002E0C8
:101E7C000744C0EB0808B8F1000FB0DD43463A4602
:101E8C00216A2846A66AB0470028F1DCA38943F0F2
:101E9C004003A3814FF0FF30BDE8F08101004020EA
:101EAC0038B50B6905460C46DBB118B183690BB923
:101EBC00FFF770FA0C4B9C4201D16C6808E00B4B9D
:101ECC009C4201D1AC6803E0094B9C4208BFEC6812
:101EDC00B4F90C302BB121462846BDE83840FFF749
:101EEC0059BF002038BD00BFB0210008D021000828
:101EFC00F021000838B5074C05460846114600226B
:101F0C0022601A4600F010F9431C02D1236803B179
:101F1C002B6038BDD400002070B50E46B1F90E1000
:101F2C0090B0002914461D4606DA00232B60B389B5
:101F3C001A060ED540230EE001AA00F0BBF80028CB
:101F4C00F3DB029A02F47042A2F500535A425A4152
:101F5C002A604FF480630020236010B070BD000035
:101F6C008B8973B59E0705460C4610D401AB6A46A7
:101F7C00FFF7D2FF009906462846FFF795FA68B995
:101F8C00B4F90C309A0522D443F00203A38104F176
:101F9C004703236023610123636118E00D4BAB629F
:101FAC00A389206043F08003A381009B20616361BF
:101FBC00019B4BB1B4F90E10284600F08DF818B106
:101FCC00A38943F00103A381A0893043A08102B00F
:101FDC0070BD00BF2113000810B5C9B20244904275
:101FEC00034605D01C7801308C42F8D1184610BD40
:101FFC00002010BD7047704738B50546002944D005
:10200C0051F8043C0C1F002BB8BFE418FFF7F2FF8B
:10201C001E4A1368114613B96360146030E0A34282
:10202C000DD92268A018834201BF18685B6812188A
:10203C00226063600C6023E0A24203D813465A6806
:10204C00002AF9D118681918A1420BD12168014452
:10205C0058188242196013D11068526801441960F3
:10206C005A600DE002D90C232B6009E0216860183E
:10207C00824201BF106852680918216062605C607E
:10208C002846BDE83840FFF7B6BF38BD88000020B1
:10209C0038B5074C054608461146002222601A4600
:1020AC0000F04AF8431C02D1236803B12B6038BD01
:1020BC00D400002038B5074C0023054608461146CD
:1020CC00236000F021F8431C02D1236803B12B607C
:1020DC0038BD00BFD400002038B5064C002305469F
:1020EC000846236000F018F8431C02D1236803B1A2
:1020FC002B6038BDD4000020024B58221A604FF0E0
:10210C00FF307047D4000020024B58221A604FF069
:10211C00FF307047D4000020024B58221A60002078
:10212C00704700BFD4000020024B58221A604FF0B9
:10213C00FF307047D4000020024B58221A604FF039
:10214C00FF307047D4000020044A05491368002B67
:10215C0008BF0B4618441060184670478C000020CE
:10216C00D8000020024B58221A604FF0FF30704705
:10217C00D400002002030405060708090A0B0C0D05
:10218C000E0F101001020000000000000000010200
:10219C00030406070809424242424144440000003D
:1021AC0004000020000000000000000000000000FF
:1021BC000000000000000000000000000000000013
:1021CC000000000000000000000000000000000003
:1021DC0000000000000000000000000000000000F3
:1021EC0000000000000000000000000000000000E3
:1021FC0000000000000000000000000000000000D3
:10220C0000000000232D302B2000686C4C0065660C
:10221C00674546470030313233343536373839412B
:10222C004243444546003031323334353637383941
:10223C006162636465660000F8B500BFF8BC08BC59
:10224C009E467047F8B500BFF8BC08BC9E46704768
:04225C003101000844
:042260000D01000864
:1022640000A24A0400000000B0210008D0210008A8
:10227400F021000800000000000000000000000041
:10228400000000000000000000000000000000004A
:10229400000000000000000000000000000000003A
:1022A400000000000000000000000000000000002A
:1022B400000000000000000000000000000000001A
:0822C4000000000004000020EE
:040000050800124994
:00000001FF
