:020000040800F2
:1000000000500020E11200082913000829130008FD
:100010002913000829130008291300080000000014
:10002000000000000000000000000000291300088C
:10003000291300080000000029130008DD10000843
:1000400029130008291300082913000829130008A0
:100050002913000829130008291300082913000890
:100060002913000829130008291300082913000880
:100070002913000829130008291300082913000870
:100080002913000829130008291300082913000860
:100090002913000829130008291300082913000850
:1000A00029130008D5110008291300082913000896
:1000B000FD1100082913000829130008291300085E
:1000C0002913000829130008291300082913000820
:1000D0002913000829130008291300082913000810
:1000E0002913000829130008291300080000000044
:1000F0000000000000000000000000000000000000
:0C01000000000000000000005FF808F1A3
:10010C0010B5054C237833B9044B13B10448AFF345
:10011C0000800123237010BD0800002000000000A7
:10012C00AC130008084B10B51BB108490848AFF3D5
:10013C0000800848036803B910BD074B002BFBD0A7
:10014C00BDE81040184700BF000000000C00002064
:10015C00AC13000808000020000000000F4B1A68C8
:10016C0042F001021A6059680D4A0A405A601A6836
:10017C0022F0847222F480321A601A6822F48022EF
:10018C001A605A6822F4FE025A604FF41F029A60F9
:10019C00044B4FF000629A60704700BF00100240A1
:1001AC000000FFF800ED00E07047000010B50446B9
:1001BC00074B18684FF47A73B0FBF3F000F080F83B
:1001CC00002221464FF0FF3000F046F8002010BD11
:1001DC0000000020074A08B51368032043F0100301
:1001EC00136000F027F80020FFF7E0FFFFF7DCFFBB
:1001FC00002008BD00200240024A1368013313603E
:10020C00704700BF24000020014B1868704700BFE6
:10021C002400002037B50190FFF7F6FF0546019C3E
:10022C00631C18BF0134FFF7EFFF401BA042FAD349
:10023C0003B030BD074A0002D36800F4E06023F439
:10024C00E0631B041B0C43F0BF6343F40033034314
:10025C00D360704700ED00E0174B30B5DB68C3F39B
:10026C000223C3F107041D1D042C28BF0424062DF2
:10027C004FF0010505FA04F404F1FF348CBF033B85
:10028C0000230C409C4005FA03F3013B1A40002864
:10029C0042EA04024FEA0212AFBF00F16040074B82
:1002AC0000F00F00D2B2A5BFD2B200F561401A54D3
:1002BC0080F8002330BD00BF00ED00E014ED00E03D
:1002CC000138B0F1807F0AD2064B074AF021586002
:1002DC0082F823100020072298601A6070470120D2
:1002EC00704700BF10E000E000ED00E0044B042874
:1002FC001A680CBF42F0040222F004021A60704724
:10030C0010E000E0036A70B523F001030362036A96
:10031C00426884690D6824F07304254323F00204B9
:10032C008B6823430A4CA0420BD1CC6823F0080302
:10033C0023434E698C6922F44072344323F0040346
:10034C00224342604A6885614263036270BD00BF0C
:10035C00002C0140036A30B523F480730362036AF6
:10036C004268C4690D6824F073042C438D6823F42F
:10037C00007343EA05230C4DA8420ED1CD6823F43B
:10038C00006343EA05234D6922F4405242EA051208
:10039C008D6923F4806342EA051242604A68C461A5
:1003AC00C263036230BD00BF002C0140036A30B54C
:1003BC0023F480530362036A4468C2690D6822F413
:1003CC00E64242EA05228D6823F4005343EA0533E2
:1003DC00064DA84202BF4D6924F4804444EA8514BA
:1003EC004460C2614A680264036230BD002C014063
:1003FC007047704790F83C3070B5012B4FF00203FA
:10040C0000F0B08080F83D300368012280F83C2079
:10041C009A6822F47F4222F077029A600A68402A96
:10042C0077D018D8102A00F08B8008D8002A40F01A
:10043C0093809A6822F0700242F007028BE0202A27
:10044C0000F08480302A40F087809A6822F0700295
:10045C0042F037027FE0702A35D01BD8502A41D0A9
:10046C00602A79D11C6A4D6824F01004CE681C6295
:10047C0099691A6A21F4704122F0A00242EA05122D
:10048C0041EA063199611A629A6822F0700242F0D0
:10049C00670260E0B2F5805F11D0B2F5005F5BD10E
:1004AC009C688D684A6824F47F44C9682A432243B7
:1004BC0042EA01229A609A6842F480424BE09A68C0
:1004CC0022F0070247E09C688D684A6824F47F4458
:1004DC00C9682A43224342EA01229A609A6842F090
:1004EC00770238E01A6A1C6A4D6824F00104CE6861
:1004FC001C62996922F00A0221F0F0012A4341EAB8
:10050C00061199611A629A6822F0700242F0570241
:10051C0021E01A6A1C6A4D6824F00104CE681C6242
:10052C00996922F00A0221F0F0012A4341EA0611EE
:10053C0099611A629A6822F0700242F047020AE04E
:10054C009A6822F0700242F0170204E09A6822F0D6
:10055C00700242F027029A60012380F83D3000239C
:10056C0080F83C30184670BD704770477047704734
:10057C007047036810B51A690446910714D5DA68F8
:10058C00920711D56FF002021A619B6901229B0739
:10059C00027702D0FFF7EAFF04E0FFF7E6FF204600
:1005AC00FFF7E5FF0023237723681A69500716D558
:1005BC00DA68510713D56FF004021A619B690222A5
:1005CC0013F4407F2277204602D0FFF7CFFF04E0E0
:1005DC00FFF7CBFF2046FFF7CAFF002323772368E2
:1005EC001A69120715D5DA68100712D56FF00802D0
:1005FC001A61DB69042299072277204602D0FFF7A3
:10060C00B5FF04E0FFF7B1FF2046FFF7B0FF002372
:10061C00237723681A69D20616D5DA68D00613D563
:10062C006FF010021A61DB69082213F4407F227705
:10063C00204602D0FFF79AFF04E0FFF796FF204612
:10064C00FFF795FF0023237723681A69D10708D594
:10065C00DA68D20705D56FF001021A612046FFF760
:10066C0083FF23681A69100608D5DA68110605D5C8
:10067C006FF080021A61204600F05FF923681A6956
:10068C00520608D5DA68500605D56FF040021A619B
:10069C002046FFF76DFF23681A6991060AD5DA68C0
:1006AC00920607D56FF020022046BDE810401A6173
:1006BC0000F042B910BD00001A4A036890420AD0FB
:1006CC00B0F1804F07D0A2F59432904203D002F5DE
:1006DC008062904215D14A6823F070031343114A8B
:1006EC0090420AD0B0F1804F07D0A2F594329042DC
:1006FC0003D002F58062904203D1CA6823F44073A0
:10070C0013434A6923F08003134303608B68C3626D
:10071C000B688362034B984204BF0B69036301238C
:10072C0043617047002C014010B50446A0B190F80D
:10073C003D3003F0FF021BB980F83C20FFF758FE58
:10074C00022384F83D302068211DFFF7B5FF0123FB
:10075C0084F83D30002010BD012010BD10B50446BA
:10076C00A0B190F83D3003F0FF021BB980F83C209B
:10077C00FFF73FFE022384F83D302068211DFFF770
:10078C009BFF012384F83D30002010BD012010BDDB
:10079C00036A30B523F010030362036A426884696C
:1007AC000D6824F4E64444EA05248D6823F0200304
:1007BC0043EA05130B4DA8420ED1CD6823F08003FC
:1007CC0043EA05134D6922F4406242EA85028D69C1
:1007DC0023F0400342EA850242604A6884618263E6
:1007EC00036230BD002C014038B590F83C30044613
:1007FC00012B0D464FF0020058D0012384F83C30F9
:10080C0084F83D000C2A4BD8DFE802F0074A4A4A2C
:10081C00174A4A4A294A4A4A39002068FFF772FDAA
:10082C0023689A6942F008029A619A6922F00402DC
:10083C009A6199692A690A430FE02068FFF7A8FFBB
:10084C00236809699A6942F400629A619A6922F4F0
:10085C0080629A619A6942EA01229A6120E02068DA
:10086C00FFF778FD2368DA6942F00802DA61DA6989
:10087C0022F00402DA61D9692A690A430FE0206880
:10088C00FFF794FD23680969DA6942F40062DA61C2
:10089C00DA6922F48062DA61DA6942EA0122DA6109
:1008AC000123002084F83D3084F83C0038BD10B59D
:1008BC000123046A8B4024EA03030362036A8A401F
:1008CC0042EA0301016210BD10B504460122006822
:1008DC00FFF7EDFF2368064A0020934202BF5A6CD3
:1008EC0042F400425A641A6842F001021A6010BDC8
:1008FC00002C014090F83C3010B5012B4FF0020356
:10090C0018D080F83D3003685A6822F070025A60A3
:10091C005C680A6822435A609A6822F080029A60E6
:10092C009C684A6822439A60012380F83D3000237A
:10093C0080F83C30184610BD7047704703682DE9AD
:10094C00F341DB07054603D42B689F074FD490E097
:10095C00974C636803F00C03042B07D0636803F017
:10096C000C03082B0AD16368DE0307D523689C03AC
:10097C00EAD56B68002BE7D1012067E16B68B3F512
:10098C00803F13D05BB9236823F480332360236842
:10099C0023F480232360FFF737FC064623E0B3F5EE
:1009AC00A02F236806D143F480232360236843F4EB
:1009BC00803305E023F480332360236823F4802301
:1009CC002360FFF721FC064623689803BCD4FFF78D
:1009DC001BFC801B6428F7D9032037E1FFF714FCBC
:1009EC00801B6428F8D823689903F7D4ACE7704CC3
:1009FC00636813F00C0F07D0636803F00C03082B2B
:100A0C0010D16368DA030DD423689B0702D52B69D8
:100A1C00012BB1D123686A6923F0F80343EAC203BE
:100A2C00236026E02A69634BB2B101221A60FFF7FA
:100A3C00EBFB064623685E4A9F0705D4FFF7E4FBF1
:100A4C00801B0228F6D9C7E71368696923F0F803FD
:100A5C0043EAC10313600CE01A60FFF7D5FB0646AE
:100A6C002368980705D5FFF7CFFB801B0228F7D921
:100A7C00B2E72B68190703D42B685A072DD492E0E0
:100A8C00AA694B4C4C4BDAB101221A60FFF7BCFB44
:100A9C000646636A9B0705D4FFF7B6FB801B02284A
:100AAC00F7D999E7454B4FF4FA521B68B3FBF2F3B5
:100ABC00019300BF019B5A1E0192002BF9D1DBE779
:100ACC001A60FFF7A1FB0646636A9F07D4D5FFF7B0
:100ADC009BFB801B0228F7D97EE7354CE369D800D5
:100AEC000AD4E369012743F08053E361E36903F01F
:100AFC0080530093009B00E00027314E3368D905EA
:100B0C0003D5EB68012B11D125E0336843F48073D6
:100B1C003360FFF779FB80463368DA05F1D4FFF7D1
:100B2C0073FBC8EB00006428F6D955E76BB9236A50
:100B3C0041F2883823F001032362236A23F0040373
:100B4C002362FFF761FB064625E0052B236A06D1DD
:100B5C0043F004032362236A43F0010305E023F00E
:100B6C0001032362236A23F004032362FFF74CFB87
:100B7C0041F288368046236A9B070FD4FFF744FB6B
:100B8C00C8EB0000B042F6D926E7FFF73DFB801B0F
:100B9C0040453FF621AF236A9807F6D41FB1E369AD
:100BAC0023F08053E361EA6962B900204EE000BF94
:100BBC00001002400000424280044242000000202B
:100BCC0000700040234C636803F00C03082B3FF4C7
:100BDC00D3AE214E0023022A33602BD1FFF714FB36
:100BEC00074622681B4B910105D5FFF70DFBC01B77
:100BFC000228F6D9F0E62F6AB7F5803F05D159687F
:100C0C0021F40030A968014359606A6A63683A4369
:100C1C0023F474131343636001233360FFF7F4FA76
:100C2C00054623689A01C0D4FFF7EEFA401B022850
:100C3C00F7D9D1E6FFF7E8FA054623689B01B4D54E
:100C4C00FFF7E2FA401B0228F7D9C5E602B0BDE86F
:100C5C00F08100BF0010024060004242184B70B59A
:100C6C0003F110052E4686B002AC2246186859686E
:100C7C00083303C2AB421446F7D133881149ADF89F
:100C8C0004304A6802F00C03082B16D1C2F38343DC
:100C9C0006A8D20341BF4A680146C2F3404252182B
:100CAC00034444BF12F8140C074A13F8103C4CBF11
:100CBC00B2FBF0F00548584300E0034806B070BDA5
:100CCC00881300080010024000127A0000093D0051
:100CDC004C4A2DE9F0411368054603F007038B429B
:100CEC000E460AD32968880714D54748436823F071
:100CFC00F002AB68134343600CE0136823F0070366
:100D0C000B431360136803F007039942EAD00120E8
:100D1C00BDE8F081CA0706D43A4A136803F007030A
:100D2C009E4241D34AE06B68374C012B226802D1BA
:100D3C0012F4003F06E0022B02D112F0007F01E01A
:100D4C0012F0020FE3D0626841F2883822F00302FD
:100D5C0013436360FFF758FA6B680746012B0CD1FD
:100D6C00636803F00C03042BD6D0FFF74DFAC01BBD
:100D7C004045F5D90320BDE8F081022B0FD1636803
:100D8C0003F00C03082BC7D0FFF73EFAC01B4045FD
:100D9C00F5D9EFE7FFF738FAC01B4045EAD863688E
:100DAC0013F00C0FF6D1B7E7136823F007033343A6
:100DBC001360136803F007039E42A8D12968124CF4
:100DCC0011F0040F05D0636823F4E062EB68134361
:100DDC0063600B0706D563682A6923F4605343EA02
:100DEC00C2036360FFF73AFF6368084AC3F3031357
:100DFC00D35CD840064B18600020FFF7D7F90020D1
:100E0C00BDE8F08100200240001002409A13000857
:100E1C0000000020014B1868704700BF0000002044
:100E2C0003682DE9F341D907054656D5374CE369DC
:100E3C00DA000AD4E369012743F08053E361E369E4
:100E4C0003F080530193019B00E00027304E336880
:100E5C00DB0505D5236A2D4913F4407312D116E036
:100E6C00336843F480733360FFF7CEF98046336800
:100E7C00D805EFD4FFF7C8F9C8EB00006428F6D901
:100E8C0003203FE06A6802F4407293420CD1236A5B
:100E9C001E4923F440726B6813432362EFB1CB6994
:100EAC0023F08053CB6118E00B6A1A4A01261660B6
:100EBC0023F44070002616600862D907E7D5FFF7C7
:100ECC00A3F941F288380646236A9A07DFD4FFF764
:100EDC009BF9801B4045F7D9D2E72868830706D5D4
:100EEC000A494B6823F44042AB6813434B6010F043
:100EFC00100007D0054900204B6823F48002EB68F2
:100F0C0013434B6002B0BDE8F08100BF00100240FB
:100F1C0000700040400442422DE9F74F0024264661
:100F2C00624BDFF894E1DFF894C101220D68B24006
:100F3C0032EA050540F0B3804D68122D28D00ED84A
:100F4C00022D22D004D835B3012D2DD1CC682BE045
:100F5C00032D18D0112D27D1CC68043424E0544F24
:100F6C00BD4218D006D8DFF85881454513D008F596
:100F7C00803805E075450ED065450CD0DFF844810E
:100F8C00454511D107E000240EE0CC6808340BE095
:100F9C00CC680C3408E08C682CB1012C0CBF0261BD
:100FAC004261082400E00424FF2A97BF8346A6F17F
:100FBC000805D0F80090B50084BFD0F80490AD00BF
:100FCC004FF00F0808FA05FA29EA0A0904FA05F5A0
:100FDC0088BF00F1040B49EA0505CBF80050D1F8A5
:100FEC00049019F0805F5AD0324D324FAD6906F043
:100FFC00030A45F00105BD61BD694FEA8A0A05F097
:10100C0001050195019D26F0030505F1804505F5C7
:10101C008035D5F808B0A7F5843708FA0AF8B84235
:10102C002BEA080810D007F58067B8420FD007F5F7
:10103C008067B8420ED007F58067B8420CBF4FF0FE
:10104C00030B4FF0040B07E04FF0000B04E04FF0E4
:10105C00010B01E04FF0020B0BFA0AFA4AEA080AFC
:10106C00C5F808A01D6819F4803F14BF15439543BB
:10107C001D605D6819F4003F14BF154395435D6016
:10108C009D6819F4801F14BF154395439D60DD685E
:10109C0019F4001F14BF2A4325EA0202DA60013654
:1010AC00102E7FF442AF03B0BDE8F08F0004014076
:1010BC00000021100010024000003110000032101E
:1010CC000000111000002210C3685940C160704725
:1010DC00FFF792B830B5012395B00E93102302247C
:1010EC0000250F930AA84FF4601313930A941194DC
:1010FC001295FFF723FC0F232146059305A84FF407
:10110C0080630893069407950995FFF7E1FD4FF46A
:10111C00404301A803930194FFF782FEFFF77AFE88
:10112C004FF47A73B0FBF3F0FFF7CAF80420FFF723
:10113C00DDF82A4629464FF0FF30FFF78DF815B041
:10114C0030BD00000A4A136843F010031360094BCA
:10115C001A6822F470021A601A6842F4C0021A600B
:10116C00054B1A68136843F400531360704700BFB3
:10117C001810024004100140040000204FF080447D
:10118C00254608B5FFF726F8FFF7A4FF00F044F852
:10119C000020FFF70BF8FFF7D5FF4FF47A7363636A
:1011AC004FF4FA70FFF736F84FF400510548FFF78B
:1011BC008BFF636B002B0CBF4FF47A7300236B63B4
:1011CC00EEE700BF0010014010B5074C2046FFF7BA
:1011DC00D0F94FF400510548FFF776FF23686FF004
:1011EC0001021A6110BD00BF280000200010014050
:1011FC0010B5074C2046FFF7BCF94FF400510548D9
:10120C00FFF762FF23686FF001021A6110BD00BF87
:10121C00680000200010014070B5012394B02A4EE4
:10122C0005A905932948022306930893FFF774FE3A
:10123C00B369274C43F00403B361B369002503F091
:10124C0004030193019B4FF0804384E828004FF680
:10125C00FF732046E3608023A361A5602561FFF73F
:10126C0063FA1022294609A800F080F84FF4805345
:10127C0009A920460993FFF7BDF82046FFF76EFA3F
:10128C0003A9204603950495FFF734FB29461C223D
:10129C000DA800F06BF860230D932A4604230DA9CA
:1012AC0020461193FFF7A0FAF369294643F0010396
:1012BC00F361F369204603F001030293029BFFF7ED
:1012CC0003FB14B070BD00BF0010024000080140C9
:1012DC00A8000020002103E00B4B5B584350043165
:1012EC000A480B4B42189A42F6D30A4A02E00023F2
:1012FC0042F8043B084B9A42F9D3FEF72FFF00F05B
:10130C000FF8FFF73BFF7047CC13000800000020DC
:10131C000800002008000020E8000020FEE7000084
:10132C000E4B70B51E460E4C0025E41AA410A542B7
:10133C0004D056F8253098470135F8E700F030F81E
:10134C00084B094C1E46E41AA4100025A54204D0F3
:10135C0056F8253098470135F8E770BDC4130008DE
:10136C00C4130008C4130008C81300080346024441
:10137C00934202D003F8011BFAE7704702030405FD
:10138C00060708090A0B0C0D0E0F101001020000C5
:10139C000000000000000102030406070809000019
:1013AC00F8B500BFF8BC08BC9E467047F8B500BF46
:0813BC00F8BC08BC9E46704716
:0413C40031010008EB
:0413C8000D0100080B
:0813CC0000A24A0410100140C8
:04000005080012E1FC
:00000001FF
